S011000041524F42535F323032352E73333744
S1130000001000204D01000079010000790100007A
S113001079010000790100007901000079010000F4
S113002079010000790100007901000079010000E4
S113003079010000780100007901000021340000FA
S113004079010000790100006502000079010000D7
S113005079010000790100007901000079010000B4
S113006079010000790100007901000079010000A4
S1130070413000007901000079010000790100009D
S113008079010000790100007901000010B5064CE7
S11300902378002B07D1054B002B02D0044800E045
S11300A000BF0123237010BD640200200000000083
S11300B018590000044B10B5002B03D00349044821
S11300C000E000BF10BDC046000000006802002030
S11300D018590000164B002B00D1144B9D464022AA
S11300E092029A1A924600218B460F461348144AEC
S11300F0121A04F03AF80F4B002B00D098470E4B1D
S1130100002B00D098470020002104000D000D486A
S1130110002802D00C4800E000BF03F0D9FF200003
S1130120290003F0E1FA03F0BDFFC0460000080017
S11301300010002000000000000000006402002005
S11301407C070020000000000000000006488047F3
S11301500649074A074B9B1A03DD043BC858D05095
S1130160FBDCFFF7B7FF00003D020000245900004C
S11301700000002064020020FEE7C04600487047EB
S113018000366E01F0211D4A8901D36A0B4080219B
S113019049018B422FD0802189018B4205D08021D7
S11301A009018B4204D1164B00E0164B18687047C6
S11301B0D368E022D200134080229200934214D0EC
S11301C007D8002B15D0013AFF3A93420FD00020F4
S11301D0EDE7C0229200934205D00132FF329342F0
S11301E0F5D10948E3E70948E1E70948DFE70948A9
S11301F0DDE70948DBE780200002D8E700800C40F7
S11302000400002008000020406F4001809FD500BA
S1130210C0D8A70040B56400804F120010B5FFF7A6
S1130220B1FF0F22034B5B681340D840024B1860A8
S113023010BDC04600800C4000000020014A024B63
S11302409A6070470000000000ED00E0802000028A
S11302507047FA2080007047014B18687047C04609
S11302600800002002210C4A0C4B516059600139EE
S113027091615A6A0A4B0B48197889000A50197817
S1130280094889000958914202D21B789B001A50F0
S11302900122064B1A70704700000140000401401F
S11302A0C0020020A002002080020020C102002021
S11302B0054B8000C258C158044B8908C358501AD2
S11302C0834280414042704780020020A002002007
S11302D070B5184801F0F3FC00230125164C237077
S11302E02378072B03D9134801F0E4FC70BD23786D
S11302F0124AD35C002B04D123780133DBB2237080
S1130300EEE721780B48C9B201F0CEFC00230C487B
S11303100C490D4A43624B621370456004204D60E2
S11303200A491378002BE7D10B6983430B6130BF73
S1130330F7E7C04600100040C00200206C510000E6
S11303400000014000040140C102002000ED00E073
S113035030B587B001AC22001B4B23CB23C204254C
S113036003CB03C20121194801F0D8FD012118482B
S113037001F0D4FD0121174801F0D0FD164A0121F6
S1130380536C16482B43536401F0C8FD9022144B60
S113039012051A600A22DA61093ADA6000225A6206
S11303A0104B114A21001A60104A1148DA61114AAF
S11303B01A648122104B52041A6101F051FC0F4B54
S11303C01D6007B030BDC046585100004081040094
S11303D0000204000012040000800C4000420400EB
S11303E000000140000401400000010AFFFF00007A
S11303F0001000400100100A00C00C4000E100E0C1
S113040010B5084B1C78002C01D0002010BD01222F
S11304101A70054BE358002BF7D098470434002892
S1130420F7D0F3E7F40200200C00002010B50A4BCB
S11304300C001B78002B0BD000280BDC2C220100B5
S11304405143064B2000591803F086FE002010BDCE
S11304500348FCE70348FAE7F4020020C402002042
S1130460050011800200118010B50B4B01001B78B0
S1130470002B0DD0094A1368002B0BDC581C1060AC
S11304802C2253430648C01803F066FE002010BD1A
S11304900448FCE70448FAE7F4020020F0020020D4
S11304A0C4020020050011800100118030B58029AC
S11304B00DD1084912010C68074DA2180020AA4268
S11304C002D91860054830BD1C600A60FBE7044887
S11304D0F9E7C04614000020F50400200100118053
S11304E002001180004870470400118010B500F02C
S11304F033F900F0EBF8002010BDF8B5047C1D00C2
S1130500013C631E9C410E0000276442E4B23801A2
S11305103018AF4201D10020F8BD1022210003F0B1
S113052024FE0137F3E7F7B504200F000B2100F098
S113053041F9062000F015F9089B02215D1C6B4669
S11305409E1D0123ADB22A021343300033800024E0
S113055000F0E0F8099B200138189C4208D10220E1
S113056000F0FFF80B21042000F030F90020FEBD5C
S1130570102100F0CFF8099B013BA34208D10123CD
S11305805B42022130003380013400F0C3F8E1E71C
S1130590FF226B1C1B191B021343F2E710B50A213F
S11305A0042000F01FF910BD10B50821002000F050
S11305B001F90A21002000F0FDF810BD10B50C1E51
S11305C003D0FFF7F1FF002010BD0A21200000F046
S11305D0FDF80821200000F0F9F8F4E730B58DB0FB
S11305E000F0BAF800F072F800F0CCF800230F2104
S11305F01A00022000F0D0F8002307211A0003207B
S113060000F0CAF800230B211A00042000F0C4F8FB
S1130610002308211A00180000F0BEF800230A2164
S11306201A00180000F0B8F800230A211A00042068
S113063000F0B2F8402200211C4800F097F8041E94
S113064030D11B4B01A80193012303747F33436012
S1130650C3608360174B44744361174B8361174B2A
S1130660C361174B0362174B4362174B8362FFF757
S1130670FBFE041E16D1FFF797FF0B21042000F0A8
S113068099F8062000F06DF86B460425981C0221A9
S1130690058000F03FF8022000F063F80B212800E9
S11306A000F094F820000DB030BDC0469D05000058
S11306B074510000BD050000AD040000E504000015
S11306C027050000FB040000ED04000030B587B0EE
S11306D06C4622000A4B23CB23C223CB23C2094DF1
S11306E00121094801F01AFC084B28002100A360ED
S11306F002F0BCF90020064B6B6507B030BDC04664
S11307008C51000000C4004000320400E0C8100016
S11307100A03000070B5012604000D00002D06D167
S113072020230C490A691A42FCD0002070BD012D17
S113073001D0344206D02178064802F0CFF9013DB9
S11307400134EBE72188034802F0CEF9023D02347C
S1130750E4E7C04600C4004010B501F097F900205A
S113076010BD10B501F068FA002010BD10B503F0FB
S1130770C9F9431E9841024B4042184010BDC0467F
S11307800200138010B50121024801F0C7FB0020CC
S113079010BDC0460072040010B5141E05D1C0B2CD
S11307A0042201F005FE200010BD0148FCE7C0460C
S11307B0010013800123C2B224208B405043024A1B
S11307C08018036100207047006000400123C2B21A
S11307D024208B405043024A801843610020704714
S11307E0006000400123C2B224208B405043024ADF
S11307F080188361002070470060004030B585B0E8
S1130800040001211D4801F089FB1D4B22689A4216
S113081032D101211B4801F081FB61792079012348
S11308200A2201F0C5FDE179A07901230A2201F031
S1130830BFFD0122637909219A4024232079124DB6
S11308404343124818185B19013902601A600029E1
S1130850FAD10323227A20681202134383636A467F
S1130860012313705370236969460293E36801936B
S1130870237D137301F016FE05B030BD40810400E2
S113088000A0004000B2040014600040106000406A
S113089070B5050001F0D0FF054C012802D1013CE0
S11308A0002C00D170BD280001F018FEF5E7C04609
S11308B0E193040000207047FEE7802300209B01A1
S11308C04B6070470120704700207047F8B50F0057
S11308D00C008E18E51BB44203D000F04BF8431C07
S11308E005D1002D01D101256D422800F8BD2070ED
S11308F00134EFE7054B02001968002901D10449CE
S11309001960186882181A607047C046F8040020FD
S11309108007002070B50E0015000C00A31B9D423B
S113092001DC280070BD207800F028F80134F5E7D8
S113093010B58EB0002003A9FFF778FD041E11D175
S1130940012301A8094901940471437100F0E8FFEF
S1130950041E07D1064B0222186821002300806878
S113096003F026FC20000EB010BDC046FC0400209D
S113097084000020012040427047000010B5064B5F
S113098004001868002804D0210001F035F8200084
S113099010BD01204042FBE7FC04002010B586B0E6
S11309A01C0001AB19800421598069460A70012298
S11309B002911A811A8219000494FFF769FF002832
S11309C001D0FF23237006B010BD10B588B003AC6E
S11309D021800121618002A94B700223238101AB94
S11309E0069300230A70049121002382FFF750FF2D
S11309F008B010BD70B58AB005AC218001216180BA
S1130A0002A90A70002293420BDC0133238101AB5B
S1130A10E3600023616021002382FFF739FF0AB0FD
S1130A2070BD01320E9E551E755D8D54EBE710B5F9
S1130A3086B001AC21800421618069460A700122DC
S1130A402281089A0291210004922382FFF720FF59
S1130A5006B010BD10B50C00130001792200006827
S1130A60FFF7B3FF00B210BD13B56B46DC1D0A00DF
S1130A70230001790068FFF791FF207816BD13B5B4
S1130A800C0001790093006813002200FFF7B2FF05
S1130A9000B216BD13B50C00017900930068130071
S1130AA02200FFF7C4FF00B216BD10B50A2002F001
S1130AB07FF910BD10B5012002F07AF910BD0000D5
S1130AC010B5064B1971186000211800FFF7CCFF10
S1130AD0C0B247384342584110BDC0461C050020EF
S1130AE010B5054B14001971186003211800FFF7A5
S1130AF0BBFF2060002010BD1C050020F7B51E00C0
S1130B000023214C3360170001AA21712060FFF7F4
S1130B10E7FF019B002B09D1200000F0E8FA012532
S1130B2021212000FFF7A0FF2842F9D02C2120002A
S1130B30FFF79AFF2D2105002000FFF795FF000223
S1130B4005433235A8B2642102F0FCFF019B3880D2
S1130B50002B12D126212000FFF786FF2721050054
S1130B602000FFF781FF282300020543FF33ADB2C5
S1130B709D4202D9273BFF3B3360FF222121200005
S1130B80FFF768FF0020FEBD1C050020F0B587B00C
S1130B907D4C17002171206026212000FFF764FF9F
S1130BA0272105002000FFF75FFF000205432821ED
S1130BB02000FFF759FF292106002000FFF754FF0A
S1130BC000020643B3B22A2120000193FFF74CFF31
S1130BD02B2106002000FFF747FF000206432121D6
S1130BE02000FFF741FF2121C2B22000FFF732FFAE
S1130BF06B469B8804A9ADB2B6B24B800D808E8043
S1130C0008008921490000238C46604A5C00245A6C
S1130C10995C644522D9002904D101315C4C995472
S1130C2099000F510133032BF0D11033FF3300200F
S1130C309D4211D8019A9A420ED89E420CD8544C27
S1130C40544D2068002810D1002000232B6023601D
S1130C506B606360AB60A36007B0F0BD0129E1D1B4
S1130C6000214C4C99549900DBE761680029EBD0D2
S1130C70A268002AE8D02B689C46002BE4D06F6859
S1130C80002FE1D0AE68002EDED0FC231B069C456D
S1130C9009D89F4207D89E4205D8984203D8994262
S1130CA001D89A420DD93C4B63442B603A4BFF1850
S1130CB0F618C018C918D2186F60AE602060616061
S1130CC0A26022682B686968981A43089B186268B6
S1130CD0A668891A029149088918AA68921B039286
S1130CE052089219571A914200D98F1ACE1AB44653
S1130CF08B4201D95E1AB446D61A0196934201D9A1
S1130D009E1A01960A2805D802980A2802D8039840
S1130D100A2899D98B422FD20120674595D3934253
S1130D2006D8019E0120B74200D28EE78B4210D232
S1130D300220674500D288E7934218D8914208D927
S1130D406046019E8019400806000320B74200D97E
S1130D507BE7934200D377E7914200D374E7019B8A
S1130D6063445E08B74200D86EE704206DE7019E35
S1130D70B74200D269E7E1E79342D2D9019E02204B
S1130D80B74200D261E7E4E71C0500201805002003
S1130D90000500200C050020FFFFFF1F70B586B082
S1130DA0384D160028602800297100F01CFABB2277
S1130DB004000F212800FFF74DFE0B2224181021F8
S1130DC02800FFF747FEA4B2241800226946280031
S1130DD000F056FA6A460021280000F055FB8722ED
S1130DE00121280000F08DF9A4B224181D22042149
S1130DF02800FFF72FFEA4B2241824220C21280077
S1130E0000F07FF9A4B2241800220721280000F082
S1130E1078F9A4B2241800220821280000F071F9FE
S1130E20A4B2241800220921280000F06AF9A4B20F
S1130E30241820221F21280000F063F9A4B22418EA
S1130E4020221221280000F05CF9A4B22418A4B2D4
S1130E50002E02D020B206B070BD01220921280064
S1130E60FFF7F8FD4022060008212800FFF7F2FDF5
S1130E703618280000F040F9A419A4B2201800B2D2
S1130E80E9E7C0461C0500202239223AC9B2D2B291
S1130E90415C825C002B0FD109011309CB180A4A6B
S1130EA093420ED0002B0CD08020DAB240001B0AF3
S1130EB010430333984070470B029B181B051B0D0E
S1130EC0EDE701204042F6E7FF0F00000368002928
S1130ED002DD8B40036070474942CB40FAE7437B15
S1130EE0007B1B02C01800B2C31C0CD0C31C01DB66
S1130EF000280ADB04235B42181A00B2012801DD32
S1130F000120404270470120F4E70020FAE770B561
S1130F10C824050030212800FFF7A6FD40B20128AF
S1130F2009D0002801DA00B270BD013CE4B2FFF739
S1130F30C1FD002CEED10020F6E7F7B50F0020210B
S1130F400600FFF791FD041E08DBC823019330005F
S1130F50FFF7DDFF40B2002802D004B22000FEBD3E
S1130F60002F1CD020213000FFF77EFD40B205B2D7
S1130F70A54208D000282ADB019B2C00013BDBB2F0
S1130F800193002BE3D13A0018213000FFF762FDF2
S1130F90C82344B20193002C15D024B2DEE7250007
S1130FA0F1E720213000FFF75FFD40B204B2A54213
S1130FB00BD10028D2DBFFF77DFD019B013BDBB2A7
S1130FC00193002B01D0002FEBD10024C6E72C00A5
S1130FD0C4E7F8B50024036805000E00A34203D05B
S1130FE04B1C03D001290DD02000F8BD012700249B
S1130FF02B683B42F8D101343100280064B2FFF77A
S113100065FFF5E780273F06F1E7000010B504000F
S11310100121FFF7DEFF23680B49DA0BD2038A4272
S11310200AD1802301381B06236040B2404241B2FA
S11310302000FFF74BFF10BD802212029B181B0CEF
S11310401B042360F2E7C0460080FFFF73B5040071
S11310500068431C23D06368013B033320D8261D5A
S11310602000FFF7D3FF3000FFF7D0FF012120005D
S1131070FFF7AFFF0121050049423000FFF7A9FF48
S11310806368060099B2206802F05CFD1421AD1972
S1131090491B019049B201A8FFF718FF019876BDDA
S11310A001204042FBE7F7B501270500061D7F42FA
S11310B0FFF7ACFF3000FFF7A9FF39002800FFF766
S11310C088FF390004003000FFF783FF0CCD24189B
S11310D021005343143901A849B20193FFF7F6FEE6
S11310E00198FEBD10B50021FFF727FF10BD10B514
S11310F00721FFF722FF10BD10B50F21FFF71DFFD9
S113110010BDF0B585B004000D000192FFF7FFFE9D
S1131110061E19D120212000FFF7A6FC6A46127989
S113112003AB1A701F2215400700603D1D3A1721BA
S113113020005D70FFF7A3FC061E05D120212000CE
S1131140FFF792FCB84202D0300005B0F0BD202178
S11311502000FFF789FC0500874201D1FFF7AAFCB4
S11311602800EFE7F8B5050030212800FFF77CFCE4
S113117040B2012833D0FFF79DFCF5E7013E002281
S113118018212800F6B2FFF765FCFFF793FC002E48
S113119006D039002800FFF767FC40B20028EDD1E3
S11311A00B212800FFF7C9FEC82639002800FFF7E5
S11311B05BFC40B2002805D1013EF6B2FFF77AFC91
S11311C0002EF2D139002800FFF74EFC40B201286E
S11311D003D0013CE4B2002C03D10020F8BDC824A4
S11311E02027C826D5E770B50400FFF75EFCFFF79B
S11311F05CFCFFF75AFC002208212000FFF72AFCC0
S11312000022092105002000FFF724FC2D182000EE
S1131210FFF7A8FF0022451908212000FFF71AFC58
S11312200022451904212000FFF714FC002246196E
S113123005212000FFF70EFC00228519062120005D
S1131240FFF708FC0022451903212000FFF702FCE8
S1131250FF22451921212000FFF7FCFB0122182160
S113126045192000FFF7F6FB4519FFF71EFC17226E
S113127007212000FFF7EEFB401900B270BD00000B
S113128070B586B004000D0000285AD0002958D04B
S1131290012A1DD102AE33000B322221FFF7FAFBE3
S11312A000280FD00224E822802312045B03AA60E2
S11312B0C0222B606B602B610023D2036442EA607E
S11312C06B61DBE0335C002B3DD101300C28F9D19C
S11312D02000FFF707FF0028E4D120212000FFF7BA
S11312E0C3FBC0B2002830D0FFF7E4FBF0E70300F3
S11312F0B343D7D101280DD0FFF7DCFB2021200018
S1131300FFF7B2FBC0B28028F1D12000FFF7EAFE5C
S11313100324C8E702AB0C2222212000FFF7BAFB0A
S11313200028BFD12000FFF7DDFE0028BAD120211C
S11313302000FFF799FBC0B2002813D0FFF7BAFBD7
S1131340F0E70424AFE70124ADE7122218212000BE
S1131350FFF780FB06002000FFF7D9FD002EA1D186
S11313600F36CBE7112218212000FFF773FB06008C
S11313702000FFF7CCFD002E94D1200005AB022203
S11313802621FFF787FB041E8CD102A8FFF7A7FDD7
S113139043013C482C22C01883692B21009302A8E6
S11313A02300FFF771FD01906846FFF74FFE431CD1
S11313B001D180204003286102A8FFF790FD43017A
S11313C030482922C01803692821009302A8002369
S11313D0FFF75AFD01906846FFF738FE431C01D120
S11313E080204003286002A8FFF779FD43012548C7
S11313F02522C01843682221009302A80123FFF785
S113140043FD01906846FFF721FE431C01D1802073
S11314104003686001232522222102A8FFF734FD3E
S1131420002300902222232102A8FFF72DFD019022
S11314306846FFF70BFE431C01D1E8200004A860B6
S113144002A8FFF74CFD0F4B40011C3018186861CF
S113145001232A22292102A8FFF716FD0023009068
S11314602222232102A8FFF70FFD01906846FFF70F
S1131470EDFD431C01D1C020C003E860200006B08C
S113148070BDC04618000020F0B585B006000C0001
S11314901500002906D15469002C03D101204042D3
S11314A005B0F0BD00213000FFF7DEFA3238C0B2DB
S11314B01528F3D801238340164A1342EED02A6834
S11314C0002A01D1802252036F68002F01D18027A6
S11314D07F03637821781B025B1802A802930392AE
S11314E0FFF7E1FD01AD2870000A6870E378A27887
S11314F01B029B1802A802930397FFF7D4FDA87060
S1131500000AE8702B00042213213000FFF7B7FA19
S113151040B2C5E70100380070B588B0150003AAD1
S113152011800421518001A90B700224012304912C
S113153002AE1381148211000696FFF7A9F9002860
S113154003D000232B6008B070BD03213378727878
S11315501B028A439B182B602000F4E7F8B51C009B
S1131560E52306000F001500FFF7D6FF022802D07E
S113157001204042F8BD2A680B4B390053430B4A03
S11315805B0B9B182B602200E0233000FFF7C4FFA5
S11315900228EDD12268064B00205343054A5B1311
S11315A09B182360E6E7C046093D000090E8FFFF72
S11315B0CD550000FE48FFFF30B589B01400042269
S11315C003AB198069465A800B4A04910A800222AF
S11315D01A8106321A82190001AD0695FFF758F9EF
S11315E00023984205D10133002C02D02B782370BC
S11315F00123180009B030BDFCC9FFFFF0B589B064
S11316008B00059300230400C56B0491029301230E
S113161000209C4616E00599626C029E5258115CAB
S11316204E4A9219525C002B04D0022B00D992E04E
S1131630D243D2B206234343991D01300691069941
S11316408B4239D1226B237D8242E4D8013B012BAA
S113165015D8062307215843014008D0073B8B4087
S1131660C210AA181678083033431370401AA368BE
S1131670FF211A1AC010D208281802F076FD227D24
S1131680022A2FD0E368DB08ED18029B643302932F
S1131690C823029A9B009A42B9D10623226B201DCB
S11316A0534308220192049A656AD2000092E16BC6
S11316B00022A84709B0F0BD0721674619408F40B2
S11316C00021DE10AE1971567FB2039161460A42C1
S11316D005D003993943317052080133AFE70399B8
S11316E0B943F8E7230049331B7804219B111A40BE
S11316F023004A331B785B110B401343220048320A
S11317001278D209134303220693A3680792DB08D5
S1131710581E5343033BEB18421CB3D000212A5CF0
S113172094460A006746069E0F41039601263742F7
S113173001D006360396079F039E4F43BE400131F6
S113174032430829EED11A70110A120C59709A709A
S11317500138033BE0E70248ACE7C046A45100006F
S11317600400128070B500250400636B606C591E80
S1131770226BA9420ED80B495B189B000021185814
S113178002F0F3FC0022636BE264013B23655434F2
S1131790227070BDAB00C1184968C058013502F011
S11317A0DBFCE2E7FFFFFF3F10B5436C0400002BB6
S11317B00BD0436B026B00215A43006C02F0D5FC42
S11317C00023E36423655434237010BDF7B503008C
S11317D054331D780400012D3ED0002D03D0022D7A
S11317E00BD12148FEBD437D002BFAD1636BAB4284
S11317F005D82269DB00934207D30020F2E72900D1
S11318002000FFF7FBFE0135F0E7217D01291FD001
S1131810002906D00229E4D10322A3685A43D2083E
S113182018E0A368DA080126E06B02F09EFC636B03
S1131830DD0023699D42E0D2201D01960095A36836
S11318400022E16B676AB8470028CBD10135F0E785
S1131850A368DA08FF21E6E7437D002BC1D1016DBF
S1131860FFF7CCFEBEE7C0460400128070B504004A
S11318700D000A2911D00D290CD0082923D1037D8C
S1131880012B20D90300FF2248331A8000234A3455
S1131890237014E00023E36411E00022036DC264AA
S11318A0426B01330365934209D3030038331B7839
S11318B0002B05D0FFF756FF636B013B236570BD1A
S11318C0FFF772FFFBE702F027FC68224019437818
S11318D0934300D12025E36C226B934204D300236D
S11318E0E364236D01332365236D626B93420AD352
S11318F0230038331B782000002B0ED0FFF732FF73
S1131900636B013B2365236D626C9B009B58E26C07
S1131910203D9D54E36C0133BDE7FFF745FFF2E73B
S1131920F7B52F4C0191230055331B780600002B8B
S113193051D12C490068FEF779FD051E49D1637D1C
S1131940002B12D1230008223C33A1682548E76903
S1131950B847002807D10823A268E16B2148A76A89
S1131960B847002802D0050033E0E0631C4B1A6935
S11319707F2A32D99A687D2A2FD91B4810225864AD
S1131980844630681949186018005A6305321A638E
S11319901964377938300770707939331870002337
S11319A01000674658439E0008180133B851102BA5
S11319B0F6D1220000234832138022004A321370E9
S11319C02000FFF7F1FE2300012255331A70019B1A
S11319D01C602800FEBD064DFBE7064DF9E7C04636
S11319E0240500202805002038070020E8050020F1
S11319F0050012800200128070B5030055331B7875
S1131A0004000E00002B3CD00500437D5435002B10
S1131A101BD1013322002B7038321278E36C002A78
S1131A2015D0002B06D1636B226D013B9A4201D184
S1131A3000232B700C2E10D12000FFF7B5FE0023DD
S1131A402B702000FFF7C2FE1AE00223E2E7002B0E
S1131A50F0D1236D002BEBD0ECE7230039331B7856
S1131A60002B05D00A2E03D10D212000FFF7FEFE26
S1131A7020003100FFF7FAFE2B780020032BE0D181
S1131A8070BD0148FCE7C04606001280F0B58DB079
S1131A90032261490BA802F05FFB00225F4C236C18
S1131AA002925B0705D401215D4800F037FA012357
S1131AB002935C4800F06CFA4023E26A03211A4066
S1131AC007905848019200F08FFB574800F088F9BE
S1131AD0802108904900544800F0B8F9A36D002211
S1131AE001240392234204D121004F4800F016FA46
S1131AF0039400F0EBFB01264C4C0990256835401B
S1131B0000D16BE0236880210493A368484A0593BD
S1131B10E368E569069300232360E3610733A36167
S1131B207A33FF334901D15000230BA8837000F0AE
S1131B30DDFE404B8022190052011A601A685200DF
S1131B401A600AD0606862689042FCD060680A68D3
S1131B50013AFDD862689042F0D0364B0921180052
S1131B601A6852081A601A680139002901D052080B
S1131B7039D1099800F0AEFB002E48D008992A48C4
S1131B8000F064F9012000F0A7FE059B0020A3608B
S1131B90069BE360049B2360E56100F09DFE039BCC
S1131BA0002B03D00021204800F0B8F9079B032B39
S1131BB003D019001B4800F017FB019B002B04D134
S1131BC01A001900012000F0DFFA029B002B03D059
S1131BD00021134800F0A2F90DB0F0BD069505955B
S1131BE004952E00A0E71F6817431F606768BC4672
S1131BF06768BC45FCD06768BC460768013FFDD8F0
S1131C006768BC45B0D0076897430760ACE730000D
S1131C1000F058FEC3E7C046C454000000800C40E6
S1131C20D0233E0002001E0080061200000008407F
S1131C3000E100E05800002008490300002B0CD00C
S1131C40013B88221202003253430A68D80AD20A9E
S1131C505043800901D00138FDD870475800002056
S1131C6030B50B7A4C7A1B02240123434C684D781F
S1131C70240623430C78AD07E4072C43CA682343A6
S1131C8003608B7A1402074A1B0722431343CA7A60
S1131C901204134343600B7C012102688A431343FB
S1131CA0036030BDB0000001072243689343194329
S1131CB04160704701220368934303607047012326
S1131CC00268134303607047E0228021184BD2005E
S1131CD05B69890013408B421DD007D8002B0DD0BF
S1131CE080225200934220D0002008E0C0218900C5
S1131CF08B4205D09342F7D10E4800E00E4870475E
S1131D0012200E4BDB6C1B0E984280410C4B18408A
S1131D100C4BC018F3E71220084BDB6C1B0E9842E7
S1131D208041094B1840094BF3E70948E7E7C046EF
S1131D3000800C40406F4001809FD500B081E00FCF
S1131D40400D030040420F0080E5F9FFC0CF6A0058
S1131D50C0D8A70010B5094B094A5C68002190421D
S1131D6005D9084A0131904201D9063121400720A2
S1131D705A6882430A435A6010BDC04600000C40B2
S1131D800024F4000048E80170B5064C064BE56BEE
S1131D90E363FEF7F3F9FFF7DDFF002D01D0002325
S1131DA0E36370BD00000C40711B0000034B5A6DCF
S1131DB0D20702D41A6D0242FCD1704700800C4055
S1131DC070B5054C054BE56BE363FFF7C3FF002DCE
S1131DD001D00023E36370BD00000C40711B0000C0
S1131DE000B502000006000F0438092826D8012394
S1131DF001F094FE0524240C171D2424240F104BF9
S1131E009B680F2201201340984009E00C4B5B684B
S1131E10F7E70B4A5268120A1A400132934018003D
S1131E2000BD084B9A4209D1054B9B6EE9E7064B6E
S1131E309A4203D1024B03221B6FE3E70120EFE731
S1131E4000800C408006120090071A0010B50300B1
S1131E500006000F04380C00092811D801F05EFEBA
S1131E600510101E314310101011080001F0E0FF9E
S1131E700F2226498B6893431032101A1843886046
S1131E8010BD080001F0D4FF1E232049181A4A6827
S1131E901F4B0002134018434860F1E7FFF774FF3B
S1131EA0200001F0C5FF0F2218494B6893431032FC
S1131EB0101A18434860FEF7B1F90021FFF780FFBC
S1131EC0DEE7144A9342DBD10420FFF76FFF2000C2
S1131ED001F0AEFF0F220D498B6E93431032101A9E
S1131EE018438866CCE70C4A9342C9D14020FFF7D7
S1131EF05DFF200001F09CFF032204490B6F934314
S1131F001C32101A18430867BAE7C04600800C4018
S1131F10FFFEFFFF8006120090071A0070B505004F
S1131F200005000F01380E00092815D801F0F6FD50
S1131F300515211414181B14141E00200E4CED0357
S1131F40ED0E002801D0FFF731FF0122AA40AE4078
S1131F50236893431E43266070BD0020074CEEE7C0
S1131F600120074CEBE71020064CE8E70020064C64
S1131F70E5E70020054CE2E708800C4044800C4073
S1131F8058800C4060800C4078800C4040800C40AD
S1131F9000B50F2318400138052804D801F0BEFD10
S1131FA0051A2D03033F002000BDF02080221D4BA5
S1131FB08001DB6A5201034003209342F4D0802263
S1131FC0013892019342EFD0174A9B18581E83415F
S1131FD0181DE9E70321134A936A0B401800022BEA
S1131FE0E2D006208B42DFD00800012BDCD0936ABC
S1131FF00238DB03D8D50930D6E70C21094A022080
S1132000936A0B40082BCFD004308B42CCD00338DA
S1132010042BC9D0936A0238DB02C5D5EBE707204D
S1132020C2E7C04600800C4000F8FFFF10B5040072
S1132030FFF7AEFF1A498C420AD01A4B9C420CD0CF
S11320400300032B2AD8180001F068FD180C1114A2
S11320500320154B9B6A0340F3E7134B9B6A1B0752
S11320609B0FEEE7FEF7F2F80300180010BDFEF731
S1132070F3F8F9E7FEF7D2F84308F6E78C4202D00A
S1132080084A9442F1D1084A1020926A8C4200D046
S11320900430C240E9D0FEF7DCF8E5E70023E4E7CA
S11320A002001E000300200000800C4070B5F822DE
S11320B00300802192030400134049038B4257D04C
S11320C01AD880229202934243D003D8002B10D016
S11320D0002070BD8022D202934232D0E02212034B
S11320E09342F5D12448FFF753FF072840D009282D
S11320F0EED1FEF747F8ECE7F02149038B422BD0F1
S11321000ED89022520393422AD0D02252039342F3
S1132110DED11A48FFF78AFF194B03221B6F15E023
S1132120802189038B4221D09342D1D1FEF776F8E6
S113213005002000FFF754FE0100280001F002FD15
S1132140C7E7FEF71FF80E4B9B680F221340D840D9
S1132150BFE7FEF763F8BCE70A48FFF767FFB8E795
S11321600848FFF763FF064B9B6EEEE70348F4E76E
S1132170FFF7AAFDADE7C04606000E0003002000ED
S113218000800C4002001E0030B5042813D801F072
S1132190C5FC1B1703211300082004230324104D3E
S11321A000291BD02B62002A05D00123A3400D492E
S11321B00A681A42FCD030BD202010230524EEE723
S11321C0802040230724EAE78020802380005B00EE
S11321D00924E4E7012302201C00E0E72862EAE77F
S11321E000800C402C800C4010B50F240440012CBE
S11321F004D0002C01D0032C20D910BD881E032844
S1132200FBD801F08BFC18021215012003240122D3
S11322101100FFF7B9FFFFF7B7FD244B5C62FDF730
S1132220FDFF0021FFF7CCFDE7E702200400EEE705
S113223003200124EBE700200424E8E7481E0928D2
S1132240DBD801F061FC2A121ADADA22DADADA05CA
S1132250012200231549886A022C21D1144C12044E
S11322602040034313438B62C7E70122002011007F
S1132270FFF78AFF00220223ECE70122110010007D
S1132280FFF782FF00220123E4E70421094A1368CF
S11322900B43136000220323DCE700221300D9E779
S11322A012059B001343044A0240DBE700800C4004
S11322B0FCFFFEFF40800C40F3FFEFFFEFF31080C4
S11322C072B67047002800D162B67047EFF31080F1
S11322D072B6704710B5FFF7F5FF10BD10B5054B8A
S11322E00120DA6A044B1A60FFF752FE034B1870A0
S11322F010BDC04600800C407C05002080050020F5
S1132300F8B50E4F0E4AFE6FFA6756220D4D0E4C6D
S11323102B68FF321A4022620C4A1178052902D038
S11323200120FFF761FF01232A681A4201D102222A
S113233022621E4201D00023FB67F8BD08800C40D6
S11323400E5800007C05002000800C408005002011
S113235070477047F8B5051E01D0FFF7BFFF04238F
S11323600F4A104E11690B43136134680E4B1C4025
S11323700E4BDC67FFF7ECFFFFF7A0FF070002F04E
S1132380E3FE3800FFF79EFFFFF7E3FF3460002D04
S113239002D0FFF7B5FFF8BDFDF740FFFBE7C046ED
S11323A000ED00E000E100E094A3FFFF04E100E0A1
S11323B0F0B5002A08D0242401254443194E8D4049
S11323C0A419002B1CD0256124244443154D641901
S11323D0072917D80F268F00BE406568B54316003D
S11323E0BE4035436560002A09D101328A4011009C
S11323F024224243002B11D00A4BD2181161F0BDA4
S11324006561E1E70F27084EA5688E19B600B7404D
S1132410BD431700B7403D43A560E4E7014BD21824
S11324205161ECE700600040F8FFFF3FF8B505009C
S113243014000800002A26D003262968124F1E40E3
S1132440394029602A6833023A4013432B6000283C
S113245005D10E4B9D4202D10D48FFF727FE2B6894
S11324600C4B995D614300290DD0A400E44364182A
S1132470201801F067FB2B6801389B0702D5002860
S113248000D101302861F8BDFFFCFFFF00A000402F
S113249000B20400C75400000122036893431943A7
S11324A00160704770B5002343630B4B0D00036359
S11324B00123497804004B40022102685B008A43EF
S11324C0134303602B7BAA686968FFF7AFFF297881
S11324D02000FFF7E1FF70BDFFFF0100F0B585B0FC
S11324E0A74A904200D0A1E100252E00A5498B689F
S11324F0087802934B880C7903900195C020976A61
S1132500C00007421DD001989E49002800D04B808E
S1132510002D00D00C71BB050FD5FD234B70092392
S11325200B7037E0012603200390E7E701950023B1
S11325302E00F8E701250195E0E77B05EFD5FE23A2
S1132540ECE70398082800D964E101F0F1FA0900E6
S1132550390081009600B800D30009011D01500123
S11325608848002E01D000260670019E002E00D05F
S11325704380002D00D00471029B58881B88C40638
S113258018D506201B0A0340EA30034301200870D3
S1132590536250607B4B01201978092908D100212E
S11325A0516301229A56824200D159700120185673
S11325B005B0F0BDFE2423408007E7D50120E4E701
S11325C0802007420CD0019E6E48002E00D043802C
S11325D0002D00D00471802313637F334B709EE081
S11325E0402007420BD167493F38002E3AD1019869
S11325F0002800D04B80002DCCD00C71CAE71063AA
S113260002984088C7060DD5019E5E48002E00D072
S11326104380002D00D0047102230B70029B1B78B1
S11326205362B7E7800725D5019E5648002E00D097
S11326304380002D00D00471072308790B70029B9E
S1132640C0001818038901208342B1D1082369E02E
S113265080200742B7D14020074205D149493E387E
S1132660002EC4D00870C2E7106302984088800727
S113267000D557E70126052056E74248002E01D031
S113268003260670019E002E00D04380002D00D04A
S11326900471029B5C881B88E0060DD506201B0A8A
S11326A00340EA3003430420044201D001242343BD
S11326B0087001215160B3E7FE200340F3E7802056
S11326C0074200D07FE74020074204D12D493C381F
S11326D0002E8CD0C6E71063029840884007C9D505
S11326E001982849002800D04B80002D00D00C719F
S11326F0072315E7029FE0003F183F899F421AD83D
S11327000420029B01345B88E4B2184001250028B0
S113271000D00BE72B4007D01A4B58801C710823BC
S11327200B70063B536035E7012C00D802E71548CF
S113273043800471F3E7134F002E01D005263E7049
S1132740019E002E00D07B80002D00D03C71029CA5
S1132750201840685C1CC35C4C8053620623DFE68F
S11327608020074200D02EE74020074205D10549CA
S1132770002E00D13BE73A3874E710637AE7C0468D
S113278000A00040840500202A488446002E02D080
S11327900720664630700198002801D060464380C7
S11327A0002D01D063461C71BB0600D4F2E6087903
S11327B0029BC000181803894C88D569A34203D929
S11327C04068661C4E80055560464088834204D8A4
S11327D0012BA4D107335360A1E704215160012BDD
S11327E000D8D7E6013B984200D0D3E62EE7114942
S11327F0002E01D0082008700198002800D04B80DA
S1132800002D00D00C7180235B001F4200D1C1E673
S1132810136384E6019E0748002E00D04380002DF8
S113282000D00471FB234B70F23B79E60420404254
S1132830BEE6C0468405002010B5184B984202D06D
S11328400420404210BD9A68D20701D520225A6064
S11328504A88900702D508890028F1D0520702D58A
S11328600A8A002AECD0002001240D4A107054700A
S1132870508010719160C0225A604032D968114270
S11328800AD1084A05481A63FC22596BD2000A434C
S11328905A63FFF723FED5E7D969EFE700A00040AC
S11328A084050020FFFF0100002804D0012801D185
S11328B0024B19607047024BFBE7C0460C0008400E
S11328C0080008400121034A13688B431843106031
S11328D07047C04600000840034B002802D0012284
S11328E01A6270471862FCE70000084042780378D7
S11328F0002A01D0022213438278002A01D0042244
S11329001343014A1360704700000840F0B587B0D4
S11329100B789C46002B01D10233436000234362B1
S1132920CA788B78120400928F791B06BA0201923E
S1132930CF793A0202920A7A03924F787A1E97412B
S1132940BA0104924F7A7A1E9741FA0105928F7A5E
S1132950CE7A7A1E97410D7B0C79721E96416A1EBF
S11329609541621E94414A797F01511E8A41009922
S113297036010B430399ED000B43019964030B43A8
S1132980029912070B4304990B4305990B431F4308
S113299063463E4335432C4322430260002B01D05F
S11329A00123436007B0F0BDF0B5137854789B065B
S11329B0240623439479D77923439478167A2404FC
S11329C02343D478557A2403234314790331A4028E
S11329D0234354790901240223439C467C1EA741C6
S11329E0741EA6416C1EA541947AD27A631E9C4142
S11329F0634612077F05134336053B432D013343DA
S1132A00A4002B4323430B50F0BD000070B5040019
S1132A101500081E02D10548FFF748FB690001387C
S1132A2001F090F80002606170BDC046408104006E
S1132A300A4B0B4AC360002303604260094A836067
S1132A404361C3648264084A4365904200D10365CC
S1132A508365904200D1C3657047C046AA0E00004A
S1132A6005100000F91F000000C4004070B50D00FF
S1132A700400FFF7DDFF01212A8A23681143AA7BA2
S1132A800B43501E82419202134323602B7D226824
S1132A90591E8B415B0713432360AB7C002B03D08F
S1132AA01023EA7C1343A36580232A7B5B01134331
S1132AB06360AA6869682000FFF7A8FF6B7B002B9E
S1132AC001D01023E3606B7D002B04D080232268A7
S1132AD05B02134323602B78E36070BD40230269DB
S1132AE01A42FCD041637047402302691A42FCD069
S1132AF0C163704700230B707047000030B500229B
S1132B00104C41612368934209D12060836014E032
S1132B10491B9D6841611A00002D0FD02B005D698F
S1132B208D42F5D9002DF3D0002A09D0906083603E
S1132B30002B02D05A69511A596130BD2B00F5E7B8
S1132B402060F4E7A405002010B500F009FA094B51
S1132B50094A1968002906D01368C41A4B69A342AC
S1132B6003D31B1B4B61106003E0C01A00231060E9
S1132B704B6110BDA40500209405002010B5064B40
S1132B8002201B685C69054B1B68E41800F0F8F927
S1132B90200000F01FFA10BDA405002094050020B9
S1132BA070B50400160004AA0D0002CA266110784C
S1132BB006AA2071002012882160A060E360E280F0
S1132BC0854207D16561834201D020009847002ED9
S1132BD012D03500FFF77AFB0600FFF7B5FF290096
S1132BE02000FFF78BFF054B1B68A34201D1FFF7C1
S1132BF0C5FF3000FFF76EFB002070BDA405002068
S1132C0010B5002103000E4C2268002A11D09A420C
S1132C100CD19A68002910D08A609A68101E0BD0D3
S1132C205B6951690020CB18536105E0110092687B
S1132C30EBE70220002BECD010BD2260EDE7C0468C
S1132C40A405002070B5FFF741FB114D06002C7858
S1132C50002C18D10F4B1C600F4B1C600F4B1C80B9
S1132C6000F056F9012000F08BF900F0E1F90C4B6B
S1132C70020018600B4923000B4801F0F7F80B4BD6
S1132C80186001232B703000FFF724FB002070BD77
S1132C9090050020A4050020940500209C05002038
S1132CA0A0050020E703000018FCFFFF98050020A2
S1132CB070B505000C002220002D10D000290ED084
S1132CC000230B70FFF702FB0121084B1B68002B4C
S1132CD002D02278002A03D0FFF7FCFA002070BD4E
S1132CE09D4201D12170F2E79B68F0E7A405002022
S1132CF0F0B58BB01725059310AB1B780400069331
S1132D0011AB1B880E00079304ABED1800231700CA
S1132D102B7022209C4212D029002000FFF7C8FF0C
S1132D202A780320002A0AD1079B31000293069BCC
S1132D3020000193059B00933B00FFF731FF0BB08C
S1132D40F0BDF0B58BB01725059310AB1B780400CC
S1132D50069311AB1B880E00079304ABED180023F8
S1132D6017002B7022209C4213D029002000FFF76B
S1132D709FFF2B780220002B0BD1079B320002937C
S1132D80069B31000193059B200000933B00FFF755
S1132D9007FF0BB0F0BD000010B5FA21034B89000A
S1132DA01B68584300F0CEFE013010BDA005002082
S1132DB010B58AB00F2401236C442370FFF7ECFF95
S1132DC00023010001930093054A230004A8FFF7A0
S1132DD08FFF002802D12378002BFCD10AB010BD4C
S1132DE0F52A000010B50B4B0C00196802002120D5
S1132DF091420DD3084B18680023190001F056F8CE
S1132E00FA220023920001F031F801302060002002
S1132E1010BDC04698050020A0050020F7B50400A9
S1132E20C3070CD5374A138801339BB21380FFF7CD
S1132E308BFE354B1B68002B01D0FFF79FFEA307C9
S1132E401AD500F08DF8314F05003B68C31A009382
S1132E50FFF73CFA06002C4B1C68002C4ED063692B
S1132E60009A934209D9009A3D609B1A6361FFF767
S1132E7085FE3000FFF72EFAF7BD2300009A3D606F
S1132E805969914209D8207984461879844500D932
S1132E901C009B68521A002BF2D13000FFF71AFA7B
S1132EA06369019300236361FFF710FA06002000B1
S1132EB0FFF7A6FE3000FFF70DFA2369002B09D0B7
S1132EC0FFF704FA060021692000FFF717FE30001F
S1132ED0FFF700FAE368002B02D02168200098472E
S1132EE000F03EF8019B04005D19009B5D1B431933
S1132EF00093FFF7EBF925000600ACE7022000F091
S1132F0057F8B6E79C050020A4050020940500208E
S1132F1013B5104C01212000FEF798FF0121200079
S1132F20FEF7FCFF0024012301A8037084704470A1
S1132F30FFF7DCFC0721084BDA698A43DA61802257
S1132F4099615C607A31054B5201FF315A501A6025
S1132F5013BDC046800612000000084000E100E0F6
S1132F60054A064B50681B781169C90701D550689A
S1132F7001331B061843704700000840AC050020CD
S1132F800122024013000849800709D5074B18782D
S1132F90002803D004208861002018700423134300
S1132FA0CA691343CB617047000008405C000020ED
S1132FB0012302001A40810703D504210A4303496F
S1132FC00B700349CB699343CB6170475C000020CD
S1132FD00000084010B50400FFF7C2FF114B1A6946
S1132FE0114B520706D41A68121A022A02D81A6818
S1132FF0824212D1221A012A00D8841C1C601A6849
S1133000101A0A4A904209D8196801200902090ACB
S1133010FFF74AFC0220FFF7B3FF10BD0220FFF7C1
S1133020C7FFFAE700000840A8050020FFFFFF00E3
S113303010B50248FFF73AF810BDC04680061200EA
S1133040F8B5FFF743F907000120174E002435694E
S1133050054219D08022154B52041C782406A4186A
S1133060624254411A78E4B21218D2B21A70104A69
S1133070126819780F4B0906511A994204D8FFF7C0
S113308013FC0220FFF77CFF6B0701D502231C43CE
S113309005231D40B561002C02D02000FFF7BEFEC1
S11330A03800FFF717F9F8BD00000840AC05002010
S11330B0A8050020FFFFFF0010B501210A48FEF714
S11330C02DFF0023042219001800FFF771F90222D2
S11330D0012310000821FFF76BF9022201230921C3
S11330E01000FFF765F910BD0072040070B588B0D8
S11330F0012101AD1348FEF711FF0C220021280025
S113310001F033F80323104CAB716B712A00013BBF
S1133110200000212B710126FFF746FC0A23002121
S113312004ADA6620D22E3612800E16301F01DF8FD
S11331300623290020002E70AB70FFF7E7FB08B0D0
S113314070BDC0460002040000000140F7B5012232
S1133150324B00251A64FFF7AFFFFFF7C7FFFDF7F7
S1133160F7F8FDF74DF9FDF7E3FB2D4B6A460093A5
S113317064232C4F13710021380000F0FFFF2E0050
S11331802C00FDF7A5F80320FDF792F8002819D0CC
S11331900420FDF78DF8002814D1FA2301359B0093
S11331A09D4210D9032C01D80134E4B26B461D5D55
S11331B00A21280000F050FD1B4B290058633800F9
S11331C000F0DCFF00250420FDF772F8002819D078
S11331D00320FDF76DF8002814D1FA2301369B0073
S11331E09E4210D9002C01D0013CE4B26B461E5D16
S11331F00A21300000F030FD0B4B310058633800D9
S113320000F0BCFF0026094B1A681B68120A5B0A0F
S11332101343DB07B5D400F067FAB2E700000C40B3
S11332200019324BCB5400000000014064600040A0
S113323010B501210A48FEF771FE01210948FEF785
S11332406DFE002304220A210220FFF7B1F80023B7
S113325004220B210220FFF7ABF8002010BDC0466A
S1133260408104000072040001280DD8084AC000FF
S1133270815C10180122436800209A4024234B43A8
S113328004495B185A61704701204042FBE7C0467D
S1133290D45400000060004001280DD8084AC00042
S11332A0815C10180122436800209A4024234B4378
S11332B004495B181A61704701204042FBE7C0468D
S11332C0D454000000600040034A116813685B1A7C
S11332D08342FBD37047C046B005002070B500257B
S11332E000240D4B1B68A34204D10C4B0C481B68F3
S11332F0AB4200D00B48013400F040FF152CF0D154
S1133300094C0135200000F039FF0E2DE8D12000D2
S113331000F034FF70BDC04660000020640000204F
S1133320FC540000565600002B57000030B587B0FF
S11333300124194B21001C641848FEF7EFFD2100FD
S11333401748FEF7EBFD68460200164B32CB32C23B
S113335032CB32C2FDF752FA0022C0211248FDF7E7
S11333601DFDFA21114B8900186800F0EBFB104B8E
S1133370013898420DD8C0210E4A090650600E4803
S1133380036A1B021B0A0B43036200239360073387
S1133390136007B030BDC04600000C4040810400FB
S11333A000720400E454000000A00040000000206B
S11333B0FFFFFF0010E000E000ED00E010B5FFF7B4
S11333C0B5FF134BC0211A681248FDF7DFFB013823
S11333D0032816D800F0A2FB02090F110E4A136845
S11333E0002B0EDD013B13600BE00B4A13680C2B22
S11333F007DC0133F7E7094AF1E7084A1368132B9E
S1133400F7DDFFF76BFFC820FFF75EFFD9E7C04683
S1133410B005002000A000406400002060000020EF
S1133420024A1368013313607047C046B405002094
S1133430F0B58FB001257F4B7F481D64FEF736FE43
S1133440FA21890000F07EFB7C4B0138984264D855
S1133450C0217B4A090650607A480026036A34007A
S11334601B021B0A0B430362072396601360FFF7DA
S1133470DFFE29007448FEF751FD02222B001000E4
S11334800821FEF795FF02222B0009211000FEF708
S11334908FFF2B000B9603960196059602960A96CB
S11334A0069609960495694F21006948089300F02F
S11334B065FE3B681B0A2B4007936B461B7F0D93ED
S11334C0089B012B2AD1079B002B71D1614B1B68F0
S11334D00993604A099913685B1AFA21C9008B425F
S11334E066D9029B002B04D11D2C2DD91368029C94
S11334F00B93584B0B9A1B6802959B1A564A93429E
S113350022D9019B6B40019356D00020FFF7C4FEE3
S1133510504B02951B680B9316E0FEE7079B002BAC
S1133520D7D01D2C44D94B4B099A1B689B1A4B4A84
S113353093423DD8019B002B32D11800FFF7ACFE1B
S1133540019B01951C0002933F687F0A2F40FBB248
S11335500C93049B012B3DD1002F0ED13D4B0A9AB5
S11335601B6806939A1A06993D4B0A919A4204D80D
S1133570059B049A0A9753400593059B002B3ED064
S1133580344B364A1B689B1B934238D9039B280053
S11335906B4003931BD0FFF77FFE2E4B1E682EE07B
S11335A00020FFF761FE002302931C000193CBE788
S11335B0029B002BC8D09CE70198FFF755FEA7E7B4
S11335C0FFF752FE002305931C00039317E0FFF757
S11335D04BFEE2E7002FD0D01D2CCED91D4B069A0E
S11335E01B689B1A1D4A9342C7D8039B2800002BD3
S11335F0E6D1FFF751FE039B03951C000593089B3E
S1133600012B0CD1079B002B09D1049B012B06D164
S1133610002F04D11D2C02D900F066F83C000D4B9C
S113362019681A68521A092AFBD90C9B01340493AD
S11336300D9B38E700000C4070000200FFFFFF0004
S113364010E000E000ED00E000720400646000405F
S1133650FE540000B4050020E7030000CF0700007B
S11336605702000082B0064A013801D202B0704706
S11336700192019B591E0191002BF5D0C046F8E739
S1133680581B000010B501210748FEF747FC022231
S1133690012310000921FEF78BFE022201230821D9
S11336A01000FEF785FE10BD0072040010B5094835
S11336B000F064FD0024084BA200D158074B0848D1
S11336C01B78A34200D00748013400F057FD042CB6
S11336D0F1D110BD0355000068000020B80500209A
S11336E0055500000B550000F8B501242A4B2600AF
S11336F01C64FFF7C7FFFCF783FEFDF719F9FFF71A
S1133700D5FF23002100254A14681268640A120AAE
S113371034403240E7B2D5B2012910D1002C0ED189
S11337201F4A02311378270001330B401370FFF74F
S1133730BDFF9620FFF796FF2B003900E3E7012B2E
S1133740FAD13500002AF7D1154B1878032809D887
S1133750144B00F0E3F9020E141A180000F00EFDE9
S1133760FFF766FEFFF7A2FF9620FFF77BFF002519
S1133770E2E7180000F002FDFFF7E8FCF2E71800AA
S113378000F0FCFC00F048F8ECE7180000F0F6FC50
S1133790FFF714FEE6E7C04600000C4064600040FA
S11337A0B8050020035500000122014B1A70704730
S11337B08000002070B5002282211148FDF7FCFE34
S11337C0C021040005000E48FDF77AF90D490600F2
S11337D0002C00D10C490D4800F0D0FC0949002E02
S11337E000D109490A4800F0C9FC002C01D0002E80
S11337F003D1084800F0C2FC0025280070BDC04673
S113380000A00040AC550000AF550000B6550000C4
S1133810C2550000CE550000F0B595B00EAD2A009B
S1133820984B13CB13C213CB13C20124964B210024
S11338301C649648FEF772FB022223001000082144
S1133840FEF7B6FD0222230010000921FEF7B0FDA9
S1133850FCF7D6FDFDF76CF88D4800F08FFC2100D5
S11338608C48FEF75BFB02218B48FEF7BDFCFFF79B
S1133870E9F92800FCF7C2FF884800F07FFCFFF755
S113388099FF002842D1FA24E400854800F076FC30
S11338902000FFF7E7FEFFF78DFF0028F5D0FA20A0
S11338A00DA98000FFF79EFA031E06D10190009037
S11338B07C4A0D997C48FFF744FA7C4800F05EFC92
S11338C07B4800F05BFC7B4800F058FC7A4800F031
S11338D055FC012479490A680B68120A5B0A1E0028
S11338E01500134325402640234201D1FFF7FCFE77
S11338F0002E00D0BBE0002D16D0714A7149136828
S11339008B4210DCF533FF3313600DE02200C0213D
S11339106D48FDF743FA002803D06C4800F02EFCF4
S1133920BDE76B48FAE716606A4D6B4E2B00320018
S113393082216548FDF712FE002810D0674800F088
S11339401DFC644B5E491A68654B09681B68581A6C
S113395082427BDA0020FFF79FFC20007DE0C82034
S1133960FFF780FE5F4F0DAB3A00C0215648FDF7CC
S1133970C5F8002801D05C48E1E75C4B2D68EA18E3
S11339805B4B9A42DDD85B4B32689A42D9D8FA2114
S11339902800890000F046FA0800642100F05CF970
S11339A000F07CFBFA21366807908900300000F0B3
S11339B04FF90800642100F0C5F800F06FFBFA210C
S11339C03B88089009933E4B89001F68380000F03B
S11339D029FA0800642100F03FF900F05FFBFA21A6
S11339E03F4B0A901B6889001800069300F01AFAEE
S11339F00800642100F030F900F050FBFA210B902C
S1133A008900300000F09EF8FA21060089002800A1
S1133A1000F022F9FA210B9B050089000698059312
S1133A2000F01AF9FA210A9B0490890038000393E4
S1133A3000F012F9099B02900193089B079A0093E6
S1133A40290033002C4800F099FB7AE75B189A426E
S1133A5009DD2000FFF720FC0020FFF705FC002013
S1133A60FEF778FC36E70020FFF7FEFB75E7002D34
S1133A7000D059E71A4A214913688B4200DC41E718
S1133A801F4B41E79455000000000C4000720400F5
S1133A90E4550000D0233E0002001E00F65500004D
S1133AA007560000A9370000BC0500205856000046
S1133AB0C2560000E1560000FF560000646000405A
S1133AC078000020C309000000A000401E5600003A
S1133AD03B560000D8050020D405002016570000EE
S1133AE07C000020DC0500202D570000409C0000D5
S1133AF048E80100A08601004457000077690000EF
S1133B00204E00000020704702B471464908490065
S1133B10095649008E4402BC7047C04602B471463F
S1133B2049084900095C49008E4402BC7047C046FC
S1133B3003B47146490840004900095A49008E44BB
S1133B4003BC7047002243088B4274D303098B42A1
S1133B505FD3030A8B4244D3030B8B4228D3030C59
S1133B608B420DD3FF22090212BA030C8B4202D3FB
S1133B701212090265D0030B8B4219D300E0090A23
S1133B80C30B8B4201D3CB03C01A5241830B8B422C
S1133B9001D38B03C01A5241430B8B4201D34B0315
S1133BA0C01A5241030B8B4201D30B03C01A52417A
S1133BB0C30A8B4201D3CB02C01A5241830A8B42FF
S1133BC001D38B02C01A5241430A8B4201D34B02E8
S1133BD0C01A5241030A8B4201D30B02C01A52414C
S1133BE0CDD2C3098B4201D3CB01C01A5241830900
S1133BF08B4201D38B01C01A524143098B4201D33A
S1133C004B01C01A524103098B4201D30B01C01A64
S1133C105241C3088B4201D3CB00C01A52418308DE
S1133C208B4201D38B00C01A524143088B4201D30B
S1133C304B00C01A5241411A00D20146524110466B
S1133C407047FFE701B5002000F0F0F802BDC04660
S1133C500029F7D076E7704703460B437FD4002250
S1133C6043088B4274D303098B425FD3030A8B420C
S1133C7044D3030B8B4228D3030C8B420DD3FF2276
S1133C80090212BA030C8B4202D31212090265D044
S1133C90030B8B4219D300E0090AC30B8B4201D3F7
S1133CA0CB03C01A5241830B8B4201D38B03C01A3E
S1133CB05241430B8B4201D34B03C01A5241030BB5
S1133CC08B4201D30B03C01A5241C30A8B4201D366
S1133CD0CB02C01A5241830A8B4201D38B02C01A11
S1133CE05241430A8B4201D34B02C01A5241030A88
S1133CF08B4201D30B02C01A5241CDD2C3098B426D
S1133D0001D3CB01C01A524183098B4201D38B01E9
S1133D10C01A524143098B4201D34B01C01A52418C
S1133D2003098B4201D30B01C01A5241C3088B42D1
S1133D3001D3CB00C01A524183088B4201D38B00BC
S1133D40C01A524143088B4201D34B00C01A52415E
S1133D50411A00D201465241104670475DE0CA0F35
S1133D6000D04942031000D34042534000229C46F5
S1133D7003098B422DD3030A8B4212D3FC228901FF
S1133D8012BA030A8B420CD3890192118B4208D3D5
S1133D90890192118B4204D389013AD0921100E037
S1133DA08909C3098B4201D3CB01C01A524183094B
S1133DB08B4201D38B01C01A524143098B4201D378
S1133DC04B01C01A524103098B4201D30B01C01AA3
S1133DD05241C3088B4201D3CB00C01A524183081D
S1133DE08B4201D38B00C01A5241D9D243088B4273
S1133DF001D34B00C01A5241411A00D20146634616
S1133E0052415B10104601D34042002B00D5494279
S1133E10704763465B1000D3404201B5002000F0B8
S1133E2005F802BD0029F8D016E770477047C04670
S1133E301C2101231B04984201D3000C10391B0AD6
S1133E40984201D3000A08391B09984201D300099A
S1133E50043902A2105C40187047C04604030202F1
S1133E60010101010000000000000000002B11D13D
S1133E70002A0FD1002900D1002802D00021C94313
S1133E80081C07B4024802A14018029003BDC046B2
S1133E909DFFFFFF03B4684601B5029800F030F8B7
S1133EA0019B9E4602B00CBC7047C046F0B5CE469E
S1133EB0474615042D0C2E0080B50704140C3F0C46
S1133EC09946030C7E435D43674363437F19340C77
S1133ED0E4199C46A54203D980235B029846C44456
S1133EE04B4643435143250C36046544360C2404A5
S1133EF0A4195B19591820000CBC90469946F0BDD2
S1133F00F0B54F464646D646C0B5040082B00D0013
S1133F10914698468B422FD82CD04146484600F013
S1133F20B1F829000600200000F0ACF8331A9C46D2
S1133F30203B9A4600D576E04B46524693401F00FC
S1133F404B46624693401E00AF4228D825D05346C4
S1133F50A41BBD41002B00DA7BE000220023009269
S1133F6001930123524693400193012362469340F7
S1133F70009318E08242D0D90022002300920193DA
S1133F800A9B002B01D01C605D600098019902B06F
S1133F901CBC90469946A246F0BDA342D7D9002244
S1133FA00023009201936346002BE9D0FB07984657
S1133FB0414672080A437B0866460EE0AB4201D1D3
S1133FC0A2420CD8A41A9D41012024196D4100215C
S1133FD0013E24184D41002E06D0AB42EED9013EDD
S1133FE024196D41002EF8D1009801995346001907
S1133FF06941002B23DB2B005246D3402A00644640
S1134000E2401C0053461500002B2DDB26005746CA
S1134010BE40330026006746BE403200801A9941F4
S113402000900191ACE7624620239B1A4A46DA408D
S11340306146130042468A4017001F4380E76246E8
S113404020239B1A2A0066469A402300F340134318
S1134050D4E76246202300219B1A0022009101929A
S11340600122DA40019280E72023624626009B1A4F
S1134070DE402F00B0466646B74046463B00334319
S1134080C8E7C04610B5002903D1FFF7D1FE2030A0
S113409002E0081CFFF7CCFE10BDC046C317C018D1
S11340A058407047084B10B50400002B02D0002183
S11340B000E000BF054B1868836A002B00D09847C6
S11340C02000FCF7F9FBC046000000007457000014
S11340D070B500260C4D0D4C641BA410A64209D1EA
S11340E0002601F025F80A4D0A4C641BA410A642D0
S11340F005D170BDB300EB5898470136EEE7B30025
S1134100EB5898470136F2E75C0200205C0200207D
S11341105C02002060020020044B1B681B6A002B19
S113412000D1034BEC3318687047C046840000206C
S1134130E800002082B0002900D101A9101E06D099
S1134140002B06D013780B601078431E984102B000
S1134150704702204042FAE7002310B59A4200D18A
S113416010BDCC5CC4540133F8E703001218934229
S113417000D1704719700133F9E700000FB40B4BFD
S113418013B51C68002C05D0A369002B02D12000B4
S113419000F0BEF905AB049AA1682000019300F079
S11341A091FB16BC08BC04B01847C046840000202C
S11341B0F0B51D004F4B85B01E6804000F0000923F
S11341C0002E05D0B369002B02D1300000F0A0F915
S11341D0494B9C4250D17468009B022B05D0012BA3
S11341E000D984E0002D00DA81E02100300000F0E5
S11341F021F9616B002908D023004433994202D08D
S1134200300000F08FFA002363630023A36163602E
S1134210A3891B0603D52169300000F083FAA38922
S1134220364A1340A381009B022B5AD003AB02AA47
S11342302100300000F000FAA3891843A081002D6A
S113424024D1029D280000F063FA0195071E42D193
S1134250029B0193AB4239D1012040420223A2893F
S11342601343A3810023A360230047332360236106
S11342700123636105B0F0BD214B9C4201D1B468B8
S1134280AAE7204B9C42A7D1F468A5E7002FD9D018
S1134290B369002B02D1300000F03AF9009B012BE6
S11342A003D1A389009A1A43A2810820A389276015
S11342B027616561184018D00120184000239842F6
S11342C011D06D42A360A5611800D3E7019800F0F6
S11342D01FFA071EC0D08023A289019D1343A38126
S11342E0D6E70020BAE7A560C4E7A060C2E70120D2
S11342F04042BFE784000020A45800005CF3FFFFA5
S1134300C4580000845800000B1E04D0FF2A04D9AE
S11343108A2303608B3B180070470A700123FAE775
S1134320F7B58A8905000C00130760D44B68002B8D
S113433004DC0B6C002B01DC0020FEBDE76A002FBF
S1134340FAD000232E682B6080235B01216A1A4077
S113435034D0606DA3895B0706D56368C01A636BAC
S1134360002B01D0236CC01A0200216A002328000C
S1134370E76AB847A189431C06D12B681D2B30D8A6
S11343802B4ADA40D3072CD50023636023692360CA
S1134390CB0405D5431C02D12B68002B00D16065EA
S11343A0616B2E600029C7D023004433994202D0A8
S11343B0280000F0B7F900206063BEE7012328005D
S11343C0B847431CC6D12B68002BC3D01D2B01D08A
S11343D0162B01D12E60AFE74023A2891343A3819A
S11343E0ABE740230B430120A3814042A5E70F69BB
S11343F0002FA1D00B680F60DB1B019300239207F1
S113440000D14B69A360019B002B00DC94E7019B66
S11344103A00216A2800A66AB047002803DC40233A
S1134420A2891343DFE7019B3F181B1A0193EAE7B4
S1134430010040200B6970B505000C00002B01D170
S1134440002070BD002804D08369002B01D100F046
S11344505FF80B4B9C4209D16C680C22A35E002BC5
S1134460EED021002800FFF75BFFEAE7054B9C42F2
S113447001D1AC68F1E7044B9C42EED1EC68ECE767
S1134480A4580000C458000084580000002310B54C
S1134490040003604360836081814366C2810361D9
S11344A043618361190008225C30FFF75EFE054B0F
S11344B024626362044BA362044BE362044B2363F0
S11344C010BDC046014E0000294E0000614E0000A0
S11344D08D4E000010B5024900F08CF810BDC046A6
S11344E03544000070B568254A1E55430E00290066
S11344F0743100F061F9041E08D000212A00016023
S113450046600C30A0606832FFF72FFE200070BDBB
S1134510836913B50400002B28D18364C364036545
S1134520134B144A1B6882620193984201D1012300
S11345308361200000F020F86060200000F01CF887
S1134540A060200000F018F80022E06004216068F8
S1134550FFF79CFF01220921A068FFF797FF0222C1
S11345601221E068FFF792FF0123A36113BDC04647
S113457074570000D5440000F8B51C4B07001E68B2
S1134580B369002B02D13000FFF7C2FF4836B4688C
S11345907368013B04D53368002B07D03668F6E70F
S11345A00C22A55E002D0DD06834F2E704213800FA
S11345B0FFF798FF30600028F0D10C2304003B6023
S11345C02000F8BD20000A4B656625606560A56083
S11345D0E36025616561A561082229005C30FFF76D
S11345E0C4FD6563A563A564E564E9E77457000049
S11345F00100FFFFF7B504000700002601914834CD
S1134600002C01D13000FEBD6368A5680093009BB7
S1134610013B009301D52468F2E7AB89012B08D94B
S11346200E22AB5E013304D029003800019B984769
S113463006436835EBE7000070B50E001D000E233D
S1134640C95E96B01400002907DA00232B60B389F1
S11346501B0611D48023DB000FE06A4600F00EFD38
S11346600028F2DBF022019B12021340054A9B183A
S11346705A4253412B60EDE740230020236016B0DB
S113468070BDC04600E0FFFFF7B502268B89050028
S11346900C00334206D023004733236023610123F7
S11346A06361F7BD01AB6A46FFF7C6FF00990700D7
S11346B0280000F081F8002808D10C22A35E9A0596
S11346C0EFD4032293431E43A681E4E70F4BAB626E
S11346D08023A28920601343A381009B206163612E
S11346E0019B002B0DD00E23E15E280000F0D8FCC6
S11346F0002806D00322A38993431A0001231343FD
S1134700A381A0893843A081CBE7C046D5440000EB
S113471010B5034B0100186800F04EF810BDC046F8
S11347208400002070B50500002910D00C1F2368F8
S1134730002B00DAE418280000F0E3FC1D4A13689B
S1134740002B05D163601460280000F0DBFC70BD11
S1134750A34209D9216860188342F3D118685B68C1
S113476041182160EEE713005A68002A01D0A242E2
S1134770F9D919685818A0420BD12068091858189B
S113478019608242E0D110685268411819605A6079
S1134790DAE7A04202D90C232B60D5E72168601820
S11347A0824203D1106852684118216062605C60E3
S11347B0CAE7C046E0050020032370B5CD1C9D4325
S11347C0083506000C2D1ED20C25A9421DD8300038
S11347D000F097FC254A14682100002919D1244CC3
S11347E02368002B03D1300000F0F8FA2060290080
S11347F0300000F0F3FA431C2BD10C23300033605B
S113480000F080FC03E0002DDFDA0C23336000208D
S113481070BD0B685B1B19D40B2B03D90B60CC1830
S1134820256003E04B688C420DD11360300000F02A
S113483069FC200007220B30231D9043C31AE7D0E4
S11348405A42E250E4E763600C00EFE70C00496869
S1134850C3E70323C41C9C43A042E1D0211A3000C7
S113486000F0BCFA431CDBD1C7E7C046E0050020DA
S1134870E4050020936810B5013B9360002B04DA33
S11348809469A34207DB0A2905D01368581C1060F9
S11348901970080010BD00F0FFFA0100F9E7F8B53F
S11348A006000F001400D518AC4201D1002007E027
S11348B021783A003000FFF7DDFF0134431CF3D1C7
S11348C0F8BD0000F0B59FB002900F0016000593EC
S11348D0002805D083690493002B01D1FFF718FE4B
S11348E07B4B9F425BD1029B5F68BB891B0762D5F0
S11348F03B69002B5FD0002306AC636120336376F1
S11349001033A37635002B78002B01D0252B5CD1F6
S1134910AB1B04930CD0320039000298FFF7BFFFA1
S1134920431C00D1C4E06269049B94466344636100
S11349302B78002B00D1BBE001220023524262609D
S113494002A9543252186E1C2360E360A3601370F2
S1134950A365317805225F4800F0C8FB751C002868
S113496035D12268D30604D5532302A95B1820212C
S11349701970130704D5532302A95B182B2119704E
S113498033782A2B2CD0350000210A20E3682A78BA
S11349906E1C303A092A64D900292ED026E04E4BE9
S11349A09F4202D1029B9F689FE74C4B9F429CD140
S11349B0029BDF6899E73900029800F0D7FA0028D3
S11349C099D0012040421FB0F0BD01359BE7414B17
S11349D02268C01A01238340134323602E00B8E7E2
S11349E0059B191D1B680591002B01DB099304E04D
S11349F05B42E3600223134323602B782E2B0AD1FE
S1134A006B782A2B35D1059B02351A1D1B6805923C
S1134A10002B2BDB0793324E29780322300000F061
S1134A2065FB002806D04023801B834022680135A3
S1134A3013432360297806222A486E1C217600F04D
S1134A4055FB00283AD0284B002B25D10722059B83
S1134A5007339343083305936369039A9B1863618F
S1134A6050E7434301219B18350090E701235B4243
S1134A70D0E700230A201A000135636029786E1CF0
S1134A803039092903D9002BC5D00792C3E7424323
S1134A90012352183500F1E705AB00933A00134B9C
S1134AA02100029800E000BF0390039B0133D3D19F
S1134AB0BB895B0600D584E70B9884E705AB0093BC
S1134AC03A000A4B2100029800F080F8ECE7C04657
S1134AD0A4580000E4580000C458000084580000A2
S1134AE0EA580000EE580000000000009F48000053
S1134AF0F7B5150001938A680B6900900C00934286
S1134B0000DA130022002B6043321278002A01D00D
S1134B1001332B6023689B0602D52B6802332B607C
S1134B20062723681F4027D0230043331B785A1ECF
S1134B3093412268920630D42200019943320098AE
S1134B40089EB047431C25D0062320682A68E168E4
S1134B5003400025042B03D18D1AEB43DB171D40C2
S1134B60A3682269934201DD9B1AED180027BD4218
S1134B7020D1002010E00137E3682A689B1ABB4269
S1134B80D2DD22000123193201990098089EB04712
S1134B90431CF0D101204042FEBD3020E1184331D6
S1134BA0087021005A1C45310978A2184332023397
S1134BB01170C1E7220001231A3201990098089E5E
S1134BC0B047431CE6D00137D1E70000F0B589B007
S1134BD004920A0043320593039002920A7E0C0069
S1134BE00E9B6E2A00D186E01FD8632A33D008D8E2
S1134BF0002A00D18CE0582A4DD0250042352A7075
S1134C0030E0642A01D0692AF7D1196825680A1DA1
S1134C10280629D508681A60002803DA2D23029A89
S1134C20404213706B4E0A274FE0732A74D008D8A1
S1134C306F2A1FD0702AE0D1202209680A4322601B
S1134C4003E0752A16D0782AD7D12200782145327C
S1134C501170614E22E025001A684235111D196059
S1134C6013682B70012365E008681A606906D3D5C0
S1134C7000B2D1E719682568081D186008682E0677
S1134C8005D5544E08276F2A1BD00A2719E06D0654
S1134C90F7D580B2F5E745314E4E0A7018682268A0
S1134CA0011D00681960150621D5D30702D52023FC
S1134CB01A4322601027002803D1202322689A4334
S1134CC022602300002243331A706368A360002B20
S1134CD058DB0422216891432160002854D1029DAD
S1134CE0002B5AD02500337842352B7055E05506F9
S1134CF0DBD580B2D9E71A680D68101D49691860C0
S1134D0013682E0601D5196002E06D06FBD51980E3
S1134D100023029D23614FE01A68111D1960156874
S1134D2000216268280000F0E1F9002801D0401B4E
S1134D306060636823610023029A13703CE0236976
S1134D402A0004990398059DA847431C3ED0236874
S1134D509B0715D4079BE068984239DA180037E0BE
S1134D6022000123193204990398059EB047431C7D
S1134D702CD00135E368079A9B1AAB42F0DCE9E7D3
S1134D800025F7E70028ADD0029D3900FEF760FF4B
S1134D90735C013D2B700028F7D1082F09D12368DB
S1134DA0DB0706D563682269934202DC3023013DA8
S1134DB02B70029B5B1B2361059B07AA00932100B8
S1134DC0049B0398FFF794FE431CB8D10120404292
S1134DD009B0F0BDF558000006590000002370B575
S1134DE0064C050008002360FBF784FD431C03D137
S1134DF02368002B00D02B6070BDC04678070020CC
S1134E0070B50C000E25495F00F07EF9002803DB25
S1134E10636D1B18636570BDA389024A1340A381A7
S1134E20F9E7C046FFEFFFFFF8B51F008B890500C7
S1134E300C001600DB0505D50E23C95E00220223F3
S1134E4000F040F9A389054A28001340A3813200E9
S1134E500E23E15E3B0000F075F8F8BDFFEFFFFFA5
S1134E6070B50C000E25495F00F02CF9A389421C93
S1134E7003D1054A1340A38170BD8022520113431C
S1134E80A3816065F8E7C046FFEFFFFF10B50E236E
S1134E90C95E00F0E1F810BDF8B505000E0014007D
S1134EA0002804D08369002B01D1FFF731FB224B8A
S1134EB09C422DD16C68A369A360A3891B0731D5DB
S1134EC02369002B2ED023682269F7B2981A6369EC
S1134ED0F6B2834205DC21002800FFF7ABFA002874
S1134EE026D1A3680130013BA36023685A1C2260C9
S1134EF01F706369834204D0A389DB071AD50A2E85
S1134F0018D121002800FFF795FA002812D00FE0ED
S1134F100A4B9C4201D1AC68CDE7094B9C42CAD1F3
S1134F20EC68C8E72100280000F020F80028CAD067
S1134F30012676423000F8BDA4580000C458000091
S1134F408458000070B50500080011000022064CCA
S1134F5022601A00FBF7DEFC431C03D12368002BFC
S1134F6000D02B6070BDC04678070020364B70B56A
S1134F701D6806000C00002D05D0AB69002B02D182
S1134F802800FFF7C5FA314B9C420FD16C680C2303
S1134F90E25E93B219072DD4D90611D40923012056
S1134FA0336037331343A381404270BD284B9C4286
S1134FB001D1AC68EBE7274B9C42E8D1EC68E6E70B
S1134FC05B0713D5616B002908D023004433994251
S1134FD002D03000FFF7A6FB002363632422A389D9
S1134FE09343A38100236360236923600823A28978
S1134FF01343A3812369002B0BD1A0218022A38911
S1135000890092000B40934203D021003000FFF747
S11350103BFB0123A289134011D00023A3606369E1
S11350205B42A361002023698342BED10C23E25E6C
S11350301306BAD540231343A3810138B5E7920779
S113504000D46369A360EDE784000020A458000045
S1135050C458000084580000002370B5064C0500B5
S113506008002360FBF726FC431C03D12368002BB4
S113507000D02B6070BDC04678070020002370B5B7
S1135080064C0500080011002360FBF716FC431CC6
S113509003D12368002B00D02B6070BD780700205B
S11350A0002370B5064C050008002360FBF70AFCDA
S11350B0431C03D12368002B00D02B6070BDC04675
S11350C07807002070B50500080011000022064C86
S11350D022601A00FBF7F8FB431C03D12368002B62
S11350E000D02B6070BDC04678070020C9B282187A
S11350F0904201D10020704703788B42FBD00130ED
S1135100F6E770477047000070B50500080011000D
S11351100022064C22601A00FBF7D8FB431C03D183
S11351202368002B00D02B6070BDC0467807002098
S1135130F8B5C046F8BC08BC9E467047F8B5C046F2
S1135140F8BC08BC9E46704701B40248844601BCC2
S1135150604700BF55020020000000000700000067
S1135160070503003D0000000100000000000001ED
S1135170010000005368617270204C533031334297
S1135180374448303320233100000000050000007C
S11351900000000040420F00050100000000000074
S11351A00000000000040A0A0403060608020000C6
S11351B0000000000E040E1F081F0C1F0E0E00003E
S11351C01000010E0E0E0F0E071F1F0E110E1C11E4
S11351D00111110E0F0E0F1E1F11111111111F0EAF
S11351E0000E04000200010010000C00010408017C
S11351F00600000000000000020000000000000C97
S1135200040600000000000000040A0A1E1309043A
S11352100404040400000000110611080C0102102B
S113522011110606080002111011111109010111D2
S113523011040809011B111111111101041111119B
S11352401111100200080A00040001001000121ECF
S11352500100000104000000000000000200000042
S113526000000002040802000000000000040A1FFD
S113527001080502020815040000001019041004B6
S11352800A0F010811110606041F04101011110160
S11352901101010111040805011513111111110166
S11352A0041111110A11080201081100080E0D0E53
S11352B0160E02110D060C09040B0D0E0F160D0E21
S11352C00711111111111F0204081500000000003C
S11352D00004000A0E04020002080E1F001F00084A
S11352E01504080809100F040E1E00000200080827
S11352F016110F01110F0F1D1F04080301151511BD
S11353000F110F0E04111115040A04020208000003
S113531000101301191107111304080504151311C2
S113532011191301021111110A11080104100800C6
S1135330000000000000001F100215000208150400
S113534006000004130404101F10110211100606B5
S1135350041F0404151F1101110101111104080592
S11353600111191101150510041111150A04020285
S113537004080000001E1101111F021E110408037D
S1135380041511110F1E010E02111115041E040241
S113539004080000000000000000000A0F190900C2
S11353A00404040404000602110402110811110289
S11353B01108060408000200151111110901011158
S11353C011040909011111110109091004110A1527
S11353D0110401020808000000111111110102104A
S11353E011040905041111110110011012190A15F3
S11353F00A10020204080000000000000004000A71
S11354000418160008020000020006010E0E1F0E0A
S1135410080E0E020E060002100001040E110F0EFB
S1135420071F010E110E06111F11110E0116110F87
S1135430040E040A11041F0E100E001F001E0F0E8E
S11354401E0E020E110E06090E11110E0110010F8F
S11354500C16040A110E1F0C0406000000000000C4
S11354600000000000000000000000000000000038
S11354700000000000000000000000000000000028
S11354800000000000000000000000000000000018
S11354900000000000000000000000000000000008
S11354A000000000000000000000000000000000F8
S11354B000000000000000000000000000000000E8
S11354C000000000010001080911080C20256425D2
S11354D025000000020000000A0000000200000095
S11354E00B00000000A00040040D040C06000000A6
S11354F000000000486B01000000000030000C2098
S11355002564000C003E2025730A00202025730A20
S11355100050313A20417072696E646572652F5390
S113552074696E67657265204C45442D7572690A0D
S11355300050323A20536368696D62617265204994
S11355406E74656E736974617465204C45440A0019
S113555050333A2053656E7A6F726969206465200E
S113556054656D70657261747572612D556D6964F1
S113557069746174650A0050343A2053656E7A6F19
S113558072756C2064652070726F78696D697461DE
S113559074650A0000A00040040D040C060000001D
S11355A000000000486B0100000000004F4B004564
S11355B0524F415245005369373031333A202573F5
S11355C00A005369313134373A2025730A00536590
S11355D06E7A6F7269206E65636F6E656374617451
S11355E069210A000C496E697469616C697A617297
S11355F0652E2E2E0A0049324320696E6974696152
S11356006C697A61740A005665726966696361201F
S1135610636F6E657869756E696C65210A00436F06
S11356206E6669677572617265205369313134370A
S11356302065C899756174C483210053693131347C
S11356403720636F6E6669677572617420637520B5
S11356507375636365732E000C0A54203D205465F2
S11356606D7065726174757261202843290A52480D
S1135670203D20556D696469746174656120282535
S113568025290A5556203D20555620496E646578D3
S1135690200A48203D20486973746572657A6973ED
S11356A0202843290A54613D54656D706572617404
S11356B075726120616D6269616E7461202843298D
S11356C00A00504230204C4F4E472050524553530D
S11356D0202D20536368696D626172652054610AEC
S11356E000504231204C4F4E4720505245535320D6
S11356F02D20536368696D6261726520480A000A4F
S11357002020542020205248202055562020482074
S1135710202054610A0045726F61726520636974C8
S113572069726520536937303133210A0045726F3D
S1135730617265206369746972652053693131341B
S113574037210A000D25326C642E2530316C640932
S113575025326C642E2530316C642532640925327F
S11357606C642E2530316C640925326C642E25302E
S1135770316C6400880000204300504F53495800A6
S1135780002020202020202020202828282828200D
S11357902020202020202020202020202020202005
S11357A0208810101010101010101010101010106D
S11357B0100404040404040404040410101010105D
S11357C01010414141414141010101010101010127
S11357D00101010101010101010101011010101079
S11357E010104242424242420202020202020202F9
S11357F0020202020202020202020202101010104D
S11358002000000000000000000000000000000074
S11358100000000000000000000000000000000084
S11358200000000000000000000000000000000074
S11358300000000000000000000000000000000064
S11358400000000000000000000000000000000054
S11358500000000000000000000000000000000044
S11358600000000000000000000000000000000034
S11358700000000000000000000000000000000024
S11358800000000000000000000000000000000014
S11358900000000000000000000000000000000004
S11358A000000000000000000000000000000000F4
S11358B000000000000000000000000000000000E4
S11358C000000000000000000000000000000000D4
S11358D000000000000000000000000000000000C4
S11358E000000000232D302B2000686C4C006566FE
S11358F0674546470030313233343536373839411D
S11359004243444546003031323334353637383932
S10F591061626364656600000000000032
S10B591CB8A7FF7F01000000A1
S1135924809FD50000366E0100800000DD05000074
S113593400000000F502002034574000BC749803B2
S1135944480A2B00BBAF00008D220A0047727E0177
S1135954933A8E037B6B01002F352500FCA91802B2
S11359649A191B00AC6D000006600600ED0DC3001F
S113597463EE8803DB8F01000010000001000000C7
S11359840A00000007000000115500003155000012
S11359945055000077550000F4010000C05D00007C
S11359A4010000008800002000000000A45800004A
S11359B4C4580000845800000000000000000000E7
S11359C400000000000000000000000000000000CF
S11359D400000000000000000000000000000000BF
S11359E400000000000000000000000000000000AF
S11359F4000000000000000000000000000000009F
S1135A04000000000000000043000000000000004B
S1135A14000000000000000000000000000000007E
S1135A24000000000000000043000000000000002B
S1135A34000000000000000000000000000000005E
S1135A44000000000000000043000000000000000B
S1135A54000000000000000000000000000000003E
S1135A6400000000000000004300000000000000EB
S1135A74000000000000000000000000000000001E
S1135A8400000000000000004300000000000000CB
S1135A9400000000000000000000000000000000FE
S1135AA400000000000000004300000000000000AB
S1135AB400000000000000000000000000000000DE
S1135AC4000000000000000043000000000000008B
S1135AD400000000000000000000000000000000BE
S1135AE400000000000000000943000035410000EC
S1135AF40000000080570000565600002C57000098
S1135B042C5700002C5700002C5700002C57000081
S1135B142C5700002C5700002C5700002C57000071
S1135B24FFFFFFFFFFFFFFFFFFFFFFFFFFFF00007B
S1135B3401004153434949000000000000000000F3
S1135B44000000000000000000000000000000004D
S1135B5400004153434949000000000000000000D4
S1135B64000000000000000000000000000000002D
S1135B740000000030BF04231B687047B500000018
S1075B848D0000008C
S903014DAE
