S01F000053544B333230305F7765617468657273746174696F6E5F352E73333739
S1130000001000204D01000079010000790100007A
S113001079010000790100007901000079010000F4
S113002079010000790100007901000079010000E4
S113003079010000780100007901000079010000D5
S113004079010000B5320000790100007901000057
S11300506D32000079010000BD320000790100001A
S113006079010000790100007901000079010000A4
S11300706D2B000079010000790100007901000076
S113008079010000790100007901000010B5064CE7
S11300902378002B07D1054B002B02D0044800E045
S11300A000BF0123237010BD940000200000000055
S11300B0A8550000044B10B5002B03D00349044895
S11300C000E000BF10BDC046000000009800002002
S11300D0A8550000164B002B00D1144B9D4640221E
S11300E092029A1A924600218B460F461348144AEC
S11300F0121A03F0F4FB0F4B002B00D098470E4B61
S1130100002B00D098470020002104000D000D486A
S1130110002802D00C4800E000BF03F0B3FB20002D
S1130120290002F091FF03F097FBC046000008008D
S113013000100020000000000000000094000020D7
S1130140D809002000000000000000000648804795
S11301500649074A074B9B1A03DD043BC858D05095
S1130160FBDCFFF7B7FF00003D020000B4550000C0
S11301700000002094000020FEE7C04600487047BD
S113018000366E01F0211D4A8901D36A0B4080219B
S113019049018B422FD0802189018B4205D08021D7
S11301A009018B4204D1164B00E0164B18687047C6
S11301B0D368E022D200134080229200934214D0EC
S11301C007D8002B15D0013AFF3A93420FD00020F4
S11301D0EDE7C0229200934205D00132FF329342F0
S11301E0F5D10948E3E70948E1E70948DFE70948A9
S11301F0DDE70948DBE780200002D8E700800C40F7
S11302000400002008000020406F4001809FD500BA
S1130210C0D8A70040B56400804F120010B5FFF7A6
S1130220B1FF0F22034B5B681340D840024B1860A8
S113023010BDC04600800C4000000020014A024B63
S11302409A6070470000000000ED00E0802000028A
S11302507047FA2080007047014B18687047C04609
S11302600800002010B5084B1C78002C01D0002099
S113027010BD01221A70054BE358002BF7D09847A4
S113028004340028F7D0F3E7E00000200C0000203D
S113029010B50A4B0C001B78002B0BD000280BDC8C
S11302A02C2201005143064B2000591803F00EFB89
S11302B0002010BD0348FCE70348FAE7E0000020F3
S11302C0B0000020050011800200118010B50B4B16
S11302D001001B78002B0DD0094A1368002B0BDC9E
S11302E0581C10602C2253430648C01803F0EEFA41
S11302F0002010BD0448FCE70448FAE7E0000020B1
S1130300DC000020B00000200500118001001180F5
S113031030B580290DD1084912010C68074DA21887
S11303200020AA4202D91860054830BD1C600A604A
S1130330FBE70448F9E7C04614000020E108002068
S113034001001180020011800048704704001180F0
S113035010B500F033F900F0EBF8002010BDF8B54B
S1130360047C1D00013C631E9C410E000027644276
S1130370E4B238013018AF4201D10020F8BD102298
S1130380210003F0ACFA0137F3E7F7B504200F00BE
S11303900B2100F041F9062000F015F9089B022119
S11303A05D1C6B469E1D0123ADB22A02134330002F
S11303B03380002400F0E0F8099B200138189C42A7
S11303C008D1022000F0FFF80B21042000F030F9DE
S11303D00020FEBD102100F0CFF8099B013BA34291
S11303E008D101235B42022130003380013400F044
S11303F0C3F8E1E7FF226B1C1B191B021343F2E74E
S113040010B50A21042000F01FF910BD10B5082111
S1130410002000F001F90A21002000F0FDF810BDD1
S113042010B50C1E03D0FFF7F1FF002010BD0A2108
S1130430200000F0FDF80821200000F0F9F8F4E7AE
S113044030B58DB000F0BAF800F072F800F0CCF8D6
S113045000230F211A00022000F0D0F80023072106
S11304601A00032000F0CAF800230B211A0004200C
S113047000F0C4F8002308211A00180000F0BEF8A8
S113048000230A211A00180000F0B8F800230A21FA
S11304901A00042000F0B2F8402200211C4800F0A9
S11304A097F8041E30D11B4B01A801930123037458
S11304B07F334360C3608360174B44744361174BBD
S11304C08361174BC361174B0362174B4362174B8E
S11304D08362FFF7FBFE041E16D1FFF797FF0B2183
S11304E0042000F099F8062000F06DF86B4604250E
S11304F0981C0221058000F03FF8022000F063F808
S11305000B21280000F094F820000DB030BDC04647
S11305100104000028390000210400001103000038
S1130520490300008B0300005F0300005103000037
S113053030B587B06C4622000A4B23CB23C223CBB1
S113054023C2094D0121094801F0BCFA084B2800D7
S11305502100A36002F01AF80020064B6B6507B077
S113056030BDC0464039000000C4004000320400E1
S1130570E0C810000A03000070B5012604000D0055
S1130580002D06D120230C490A691A42FCD0002010
S113059070BD012D01D0344206D02178064802F006
S11305A02DF8013D0134EBE72188034802F02CF8D3
S11305B0023D0234E4E7C04600C4004010B500F038
S11305C031FA002010BD10B500F002FB002010BD70
S11305D010B502F02DFE431E9841024B40421840D4
S11305E010BDC0460200138010B50121024801F07D
S11305F069FA002010BDC0460072040010B5141E34
S113060005D1C0B2042201F0E3FC200010BD014872
S1130610FCE7C046010013800123C2B224208B40B2
S11306205043024A80180361002070470060004074
S11306300123C2B224208B405043024A80184361F4
S113064000207047006000400123C2B224208B4088
S11306505043024A801883610020704700600040C4
S113066030B585B0040001211D4801F02BFA1D4B63
S113067022689A4232D101211B4801F023FA6179A0
S1130680207901230A2201F0A3FCE179A079012356
S11306900A2201F09DFC0122637909219A40242356
S11306A02079124D4343124818185B19013902602E
S11306B01A600029FAD10323227A20681202134314
S11306C083636A4601231370537023696946029356
S11306D0E3680193237D137301F0F4FC05B030BD8E
S11306E04081040000A0004000B2040014600040F7
S11306F01060004070B5050001F0AEFE054C012805
S113070002D1013C002C00D170BD280001F0F6FCA0
S1130710F5E7C046E193040010B586B01C0001ABB8
S113072019800421598069460A70012202911A81B4
S11307301A8219000494FFF7DDFF002801D0FF237B
S1130740237006B010BD10B588B003AC2180012120
S1130750618002A94B700223238101AB069300231D
S11307600A70049121002382FFF7C4FF08B010BD72
S113077010B50C001300017922000068FFF7E3FFB5
S113078000B210BD13B56B46DC1D0A0023000179CD
S11307900068FFF7C1FF207816BD10B5012002F0F4
S11307A09DF810BD10B5064B197118600021180092
S11307B0FFF7E8FFC0B247384342584110BDC04676
S11307C0E408002010B5054B1400197118600321CA
S11307D01800FFF7D7FF2060002010BDE4080020B8
S11307E0F7B51E000023214C3360170001AA2171C4
S11307F02060FFF7E7FF019B002B09D1200000F0E8
S113080099F8012521212000FFF7BCFF2842F9D0E7
S11308102C212000FFF7B6FF2D2105002000FFF753
S1130820B1FF000205433235A8B2642102F068FD2D
S1130830019B3880002B12D126212000FFF7A2FF54
S1130840272105002000FFF79DFF28230002054310
S1130850FF33ADB29D4202D9273BFF3B3360FF22F9
S113086021212000FFF784FF0020FEBDE4080020C2
S113087070B5C824050030212800FFF783FF40B27B
S1130880012809D0002801DA00B270BD013CE4B2AD
S1130890FFF783FF002CEED10020F6E7F7B50F0039
S11308A020210600FFF76EFF041E08DBC823019316
S11308B03000FFF7DDFF40B2002802D004B2200070
S11308C0FEBD002F1CD020213000FFF75BFF40B29B
S11308D005B2A54208D000282ADB019B2C00013B6D
S11308E0DBB20193002BE3D13A0018213000FFF76B
S11308F03FFFC82344B20193002C15D024B2DEE795
S11309002500F1E720213000FFF73CFF40B204B29C
S1130910A5420BD10028D2DBFFF73FFF019B013B2F
S1130920DBB20193002B01D0002FEBD10024C6E7EA
S11309302C00C4E710B50721FFF7B0FF10BD70B558
S113094088B0150003AA11800421518001A90B70FD
S113095002240123049102AE13811482110006962D
S1130960FFF7C8FE002803D000232B6008B070BD39
S11309700321337872781B028A439B182B60200072
S1130980F4E70000F8B51C00E52306000F0015008D
S1130990FFF7D5FF022802D001204042F8BD2A68A3
S11309A00B4B390053430B4A5B0B9B182B60220003
S11309B0E0233000FFF7C3FF0228EDD12268064B85
S11309C000205343054A5B139B182360E6E7C046A7
S11309D0093D000090E8FFFFCD550000FE48FFFFF1
S11309E030B589B01400042203AB198069465A80DB
S11309F00B4A04910A8002221A8106321A821900D3
S1130A0001AD0695FFF776FE0023984205D1013328
S1130A10002C02D02B7823700123180009B030BDBC
S1130A20FCC9FFFFF0B58DB0032261490BA802F0A9
S1130A304DFF00225F4C236C02925B0705D4012119
S1130A405D4801F03FF8012302935C4801F074F81B
S1130A504023E26A03211A4007905848019201F0AA
S1130A6097F9574800F090FF8021089049005448B6
S1130A7000F0C0FFA36D002201240392234204D19D
S1130A8021004F4801F01EF8039401F0F3F9012608
S1130A904C4C09902568354000D16BE023688021D7
S1130AA00493A368484A0593E368E5690693002321
S1130AB02360E3610733A3617A33FF334901D150E3
S1130AC000230BA8837001F021FD404B8022190004
S1130AD052011A601A6852001A600AD0606862688B
S1130AE09042FCD060680A68013AFDD8626890427E
S1130AF0F0D0364B092118001A6852081A601A6897
S1130B000139002901D0520839D1099801F0B6F908
S1130B10002E48D008992A4800F06CFF012001F00B
S1130B20EBFC059B0020A360069BE360049B236011
S1130B30E56101F0E1FC039B002B03D00021204878
S1130B4000F0C0FF079B032B03D019001B4801F0E2
S1130B501FF9019B002B04D11A001900012001F098
S1130B60E7F8029B002B03D00021134800F0AAFFF2
S1130B700DB0F0BD0695059504952E00A0E71F68FD
S1130B8017431F606768BC466768BC45FCD067684C
S1130B90BC460768013FFDD86768BC45B0D007680C
S1130BA097430760ACE7300001F09CFCC3E7C04604
S1130BB05839000000800C40D0233E0002001E0083
S1130BC0800612000000084000E100E01800002048
S1130BD008490300002B0CD0013B8822120200328A
S1130BE053430A68D80AD20A5043800901D0013815
S1130BF0FDD8704718000020044B1A780123002AFE
S1130C0002D0034B0360002318007047240900201E
S1130C10EC080020F0B506000C4804780120002CF4
S1130C2013D00B4CB51827880330BD420DDC678800
S1130C30CD18BD4209DC0130002A06D0002B04D0B7
S1130C400020A680E18022816381F0BD2409002078
S1130C50EC080020F0B589B00193644B06001B78C2
S1130C6005920120002B23D0614B1B68002B1FD061
S1130C70604A558914896D1A6C43019DA41BAC42CA
S1130C8000D2AFE05C4D6C7C002C00D0ACE0AD68D1
S1130C90ED080695D288049089188AB203922A0036
S1130CA003994A439B180293019B002B02D118001D
S1130CB009B0F0BD4F4B1D89019BAD1B9D4200D96E
S1130CC01D00019B5B1B01934B4B1B7C012B0ED81E
S1130CD0484A90880722301880B2104203D1144247
S1130CE001D1954243D8444A4619B04216D31F2233
S1130CF00398039B024004984049904002005B1112
S1130D009B005858002602435A50069A039B944667
S1130D1001330393029B63440293C5E70599E310EF
S1130D20C95C072323401941157C049B1940C3085F
S1130D30012D0AD100290CD10299049DCB18072159
S1130D4001408D401978A9430CE0002DF4D100290D
S1130D50F2D10299049DCB18072101408D4029004E
S1130D601D7829430130197080B20134BDE7029A1D
S1130D70C708EE08D719F20007922A00083A9446E9
S1130D80012B29D1059BE11059183200380002F0DB
S1130D909DFDF300E418079BED1AA8D0049BBE192F
S1130DA0AB40059FE110795C134FDBB2581E3F7CCA
S1130DB0C0B232780140012F11D15B421A400A437C
S1130DC03270641993E7059AE310D35CC108DB43DE
S1130DD008307B5480B208346045F4D9DBE7024321
S1130DE08A43EDE7032063E70A2061E72409002032
S1130DF028090020EC080020F8080020C809002079
S1130E00F0B587B00593504B04001B780120002BEC
S1130E1018D04E4B1B68002B14D04D4A557C002D26
S1130E2000D08EE09268D20803924A4A039FD28887
S1130E30029089188AB257430192DF190D9B002B47
S1130E4002D1180007B0F0BD424A0D9B15892D1B35
S1130E509D4200D91D000D9B5B1B0D933C4B197CDF
S1130E6001292DD8059B58424341DBB25E1EF6B2E0
S1130E70012901D05E42F6B290882418A4B2072D4D
S1130E8032D86519002E19D1A54219D90722029921
S1130E9022409140E308FB181A7801348A431A70FF
S1130EA0A4B2F1E707220299224091400A00E30824
S1130EB0FB18197801340A431A70A4B2A542F1D878
S1130EC01F220198019B024002982349904002008E
S1130ED05B119B005858002402435A50019B013374
S1130EE00193039BFF18A9E707222240E4083C1959
S1130EF0002A0CD0029B20789340DBB25942013B7C
S1130F00314003400B43083A2370AD180134EB0819
S1130F1004930BD01A002000310002F0E0FCEB082F
S1130F20DB00ED1A049BE418002DC9D0029B227843
S1130F30AB40DBB25942013B0A401E4016432670C7
S1130F40BEE70A207EE7C0462409002028090020C5
S1130F50F8080020EC080020C809002070B504003F
S1130F600B4801238569002D0FD00A4EC268330057
S1130F704168A84732680B23002A06D02260FF216B
S1130F801022054802F0ABFC0023180070BDC046D7
S1130F90F808002028090020C8090020F7B500241B
S1130FA0184D2B78A34229D1FFF75CF9041E25D1F3
S1130FB0154E3100FFF76CF9041E1FD1134F380092
S1130FC0FFF7CCFF041E19D13B68002B18D0F3683F
S1130FD0716898B203000E4A8FB250805081178016
S1130FE09480D480178101227B432A7021000193CD
S1130FF00094230022002000FFF702FF2000FEBD22
S11310000B24FBE724090020F8080020280900200D
S1131010EC080020F0B585B0244B01259968CB0875
S11310200293234B1C6800231F002048FE18C2684B
S1131030964209D3002B2BD1102200211C4802F028
S11310404EFC002005B0F0BD012222400AD001333D
S11310501F21FA1864080A42E7D1154AA9008C58DE
S11310600135E2E7002B11D002997943039111492C
S1131070096801938C46039900976144076A4368A1
S1131080B8470028DED1771C0300E1E70137DFE72A
S11310900299084A79431268019300975118046A27
S11310A043680022A0470028C6D0CBE7F8080020F8
S11310B0C80900202809002010B502000520002AD4
S11310C00DD0D36898B2136999B293695269013308
S11310D001325B1A121A9BB292B2FFF79BFD10BD4C
S11310E0F8B5052300281DD000291BD00E688C6894
S11310F0013BA64216DA4D68CA68954212DA013BF2
S1131100002E0FDB002D0DDB01680F88BC4209DACD
S113111049888A4206DAC660056144618261FFF744
S1131120CBFF03001800F8BD30B587B00524051EB9
S11311301CD0002343600F4B836001A8FFF75CFDC4
S1131140041E13D1019B02901A880390013A2B606C
S113115004925B8802A9013B28000593FFF7C0FFB6
S1131160041E03D10449280000F0A3FA200007B0AC
S113117030BDC046FFFFFF005C39000010B5040C11
S11311800C70010A1170187010BDF7B50525040024
S11311900E001700002812D00C3000F0A2F9043D14
S11311A000280CD0A468B9B2230A220CE4B2019539
S11311B0DBB2D2B2B0B20094FFF722FE05002800E1
S11311C0FEBDF7B505250E0017001C00002811D040
S11311D00C3000F086F9043D00280BD0230A220CC1
S11311E0E4B20195DBB2D2B2B9B2B0B20094FFF767
S11311F007FE05002800FEBD10B5C46801238C421B
S113120000DC00234469DBB28C4201DA02210B4387
S11312108169914201DA04210B430169914201DDA4
S113122008221343180010BDF0B587B00524051E2D
S113123044D00069043C904240DCA86990423DDB04
S1131240994202DD0800190003006E6901248E42F0
S113125034DBEF689F4231DC0800B94200DA380021
S11312609E4200DD1E00341A631C03936B469C8966
S113127091B280B222000123FFF7CCFC041E1DD1E1
S11312800E270D2602ABFF18F6180F2302AA9B188F
S113129031003A00A868FFF771FF03993B78327870
S11312A0019102A9C97B200000912100FFF7A8FD4C
S11312B0041E03D12800FFF7FFFE0400200007B03E
S11312C0F0BDF0B587B0052405000800002D42D01C
S11312D0E968043C81423EDC696981423BDB9A4215
S11312E002DD11001A000B00AE690124964232DBC4
S11312F0296999422FDC8A4200DA0A009E4200DD05
S11313001E00B41A631C03936B4691B29B8980B28E
S11313100122FFF77FFC041E1DD10E270D2602AB10
S1131320FF18F6180F2302AA9B1831003A00A86888
S1131330FFF724FF03993B783278019102A9C97B16
S1131340200000912100FFF75BFD041E03D128005B
S1131350FFF7B2FE0400200007B0F0BDF0B585B081
S113136000901E00009B0C0015000520002B05D0EA
S11313700A9BB14204D10098FFF7A3FF05B0F0BD6A
S11313809A4204D133000098FFF74EFFF6E7009825
S1131390FFF732FF0A9A029031000098FFF72CFF02
S11313A0002703900197029B039A1343DBB2002B9F
S11313B065D01300029A1340DBB2002B5DD1039B6E
S11313C0002A00D01300012213421CD0009BDB68CA
S11313D00193019A0A9B101B5B1B5843311B02F0BB
S11313E019F847193A0001990098FFF705FF029B85
S11313F0002B04D103900A97019E180001E03D00E0
S1131400019C0290CFE70222134202D0009B5B6949
S1131410DEE7042213420BD0009B9F69331B781B29
S113142058430A9B591B01F0F5FF03190193D9E7AF
S113143008221342D6D0009B1F69EFE7019B002BC3
S113144015D031000A9A0098FFF79FFE002895D125
S1131450029BFF18002F02DD039B3619FF1A0A9B1B
S113146001330A930A9BAB42E8DD002086E7320091
S11314700A99E8E701246442F4E701207EE70A9B25
S11314800A9A5B1B954201DB0A9BEB1AA21BB4422E
S113149000DA321B01210191934207DC0A9B0A9670
S11314A01E002B0025001C00002301930A9B9D4273
S11314B005DC330026001C000A9B0A951D000A9BCC
S11314C0EB1A0393331B0293A64201DAA31B029384
S11314D0039B5B42DF0FFF187F10A642CADC012486
S11314E0C0E710B5031E0FD0046800238C420BDC48
S11314F084688C4208DB4168914205DCC168D00FE6
S1131500CB1791424341DBB2180010BDF0B589B04E
S113151006930EAB1B780400059207930520002C5C
S113152024D00B00203B03385E2B1FD82200283226
S113153012788BB282421BD10A273A2903D0013791
S1131540303B202915D1238C0220BB420ED9002622
S1131550E3690493069B0193019B0699A21D5B1A00
S1131560D27F9BB29A4206D87042704109B0F0BD56
S1131570203B9FB2E7E7E31CDB7F012B05D0022B66
S113158020D0049ABB009B5801E0049BDB5D0293CE
S1131590059B0393039B059A9D1A631DDB7FADB2E4
S11315A0AB4213D82200631D0832DB7FD27F9B1825
S11315B09D4229DB231DDB7FFF18019BBFB2013352
S11315C00193C9E7049A7B009B5AE0E70122029B3E
S11315D013420FD0019A03992000FFF7D6FD01288A
S11315E0C4D8434258413618029B5B080293039BBC
S11315F00133CEE7079B002BF6D06368019A039969
S11316002000FFF7DEFDEAE7079B002B0BD0059BCC
S1131610019A591920006368FFF7D3FD0128A5D862
S11316204342584136180135ADB2BBE7F0B587B037
S113163003930CAB40CB05001B7805200593002DCC
S113164013D0002911D02B0028331B780338002B2A
S11316500BD08B18049300230C00039F0293049B6C
S1131660A34204D102984342584107B0F0BD217807
S11316700A2908D1AB1DDB7F039F9E19EB1DDB7F7D
S11316809E190134EBE7059B3A00009328003300D0
S1131690FFF73CFF0128E8D8434258412A00029B47
S11316A008321B1802936B1DDB7FD27F9B18FF1837
S11316B0E7E710B50523002806D01C3010220029C6
S11316C004D102F00CF90523180010BD02F0FEF855
S11316D00023F9E770B5002A0DD11E4C1E4D466B50
S11316E0A84222D1062932D8080001F0F5FD0710DE
S11316F01F2130302B001022184CEFE71849FE2030
S11317000B68C00103407F200968014008E0FE2007
S11317101349C0010B6809681B0C49020340490EB8
S11317200B439340344023436B6370BD0D49E6E79C
S11317300C490B680868FE211B0CC90119404302BF
S11317405B0EEDE77F21084B1B680B40E9E70023A4
S1131750E7E7C0468080FFFF00200040FFFF808055
S1131760B481E00FB881E00FBC81E00F70B50223B3
S11317700C004360002289780500FFF7ABFF237853
S113178062781B0712051343E2781201134322798E
S113179012021343A279002A02D080225204134376
S11317A0E279002A01D0042213436279002A01D08D
S11317B002221343227A002A01D001221343A27881
S11317C012041343EB6070BD10B5FA230400DB016F
S11317D008009C4200D21C000A4B9C4200D91C0009
S11317E0002802D1084800F035FA631E18182100B9
S11317F001F086FD002803D001387F2800D97F201E
S1131800C0B210BD405DC6004081040070B50E79C1
S113181005000C00002E1FD131001448FFF7D4FF3F
S113182006000A23FE226B602178637809061B01F7
S11318301943A378D2031943E37836021B041340F7
S11318401943FE23DB011E4063793143002B01D091
S113185008231943296070BD00210448FFF7B4FF31
S1131860FA200021C001FFF7AFFFDAE7405DC600B0
S1131870E0228021184BD2005B69890013408B421F
S11318801DD007D8002B0DD080225200934220D0C7
S1131890002008E0C02189008B4205D09342F7D193
S11318A00E4800E00E48704712200E4BDB6C1B0EF6
S11318B0984280410C4B18400C4BC018F3E712209F
S11318C0084BDB6C1B0E98428041094B1840094BB6
S11318D0F3E70948E7E7C04600800C40406F400149
S11318E0809FD500B081E00F400D030040420F00FF
S11318F080E5F9FFC0CF6A00C0D8A70010B5094B36
S1131900094A5C680021904205D9084A0131904295
S113191001D90631214007205A6882430A435A609C
S113192010BDC04600000C400024F4000048E8014B
S113193070B5064C064BE56BE363FEF71FFCFFF73F
S1131940DDFF002D01D00023E36370BD00000C40D7
S1131950711B0000034B5A6DD20702D41A6D024268
S1131960FCD1704700800C4070B5054C054BE56B0D
S1131970E363FFF7C3FF002D01D00023E36370BDD1
S113198000000C40711B000000B502000006000FAF
S11319900438092826D8012301F09EFC0524240CD0
S11319A0171D2424240F104B9B680F220120134081
S11319B0984009E00C4B5B68F7E70B4A5268120A3F
S11319C01A4001329340180000BD084B9A4209D1D5
S11319D0054B9B6EE9E7064B9A4203D1024B032267
S11319E01B6FE3E70120EFE700800C408006120044
S11319F090071A0010B503000006000F04380C000D
S1131A00092811D801F068FC0510101E314310108C
S1131A101011080001F0EAFD0F2226498B68934358
S1131A201032101A1843886010BD080001F0DEFD62
S1131A301E232049181A4A681F4B000213401843FA
S1131A404860F1E7FFF774FF200001F0CFFD0F229B
S1131A5018494B6893431032101A18434860FEF734
S1131A60DDFB0021FFF780FFDEE7144A9342DBD160
S1131A700420FFF76FFF200001F0B8FD0F220D498D
S1131A808B6E93431032101A18438866CCE70C4AC5
S1131A909342C9D14020FFF75DFF200001F0A6FD6D
S1131AA0032204490B6F93431C32101A184308672E
S1131AB0BAE7C04600800C40FFFEFFFF800612001C
S1131AC090071A0070B505000005000F01380E00DC
S1131AD0092815D801F000FC0515211414181B144D
S1131AE0141E00200E4CED03ED0E002801D0FFF76C
S1131AF031FF0122AA40AE40236893431E4326606F
S1131B0070BD0020074CEEE70120074CEBE71020E6
S1131B10064CE8E70020064CE5E70020054CE2E728
S1131B2008800C4044800C4058800C4060800C407D
S1131B3078800C4040800C4000B50F2318400138D9
S1131B40052804D801F0C8FB051A2D03033F002023
S1131B5000BDF02080221D4B8001DB6A520103404E
S1131B6003209342F4D08022013892019342EFD0B3
S1131B70174A9B18581E8341181DE9E70321134A8D
S1131B80936A0B401800022BE2D006208B42DFD070
S1131B900800012BDCD0936A0238DB03D8D5093066
S1131BA0D6E70C21094A0220936A0B40082BCFD0B8
S1131BB004308B42CCD00338042BC9D0936A02384A
S1131BC0DB02C5D5EBE70720C2E7C04600800C4026
S1131BD000F8FFFF10B50400FFF7AEFF1A498C426E
S1131BE00AD01A4B9C420CD00300032B2AD81800AD
S1131BF001F072FB180C11140320154B9B6A03406F
S1131C00F3E7134B9B6A1B079B0FEEE7FEF71EFBE4
S1131C100300180010BDFEF71FFBF9E7FEF7FEFAFC
S1131C204308F6E78C4202D0084A9442F1D1084AAC
S1131C301020926A8C4200D00430C240E9D0FEF7F2
S1131C4008FBE5E70023E4E702001E000300200090
S1131C5000800C4070B5F822030080219203040038
S1131C60134049038B4257D01AD8802292029342E0
S1131C7043D003D8002B10D0002070BD8022D202A4
S1131C80934232D0E02212039342F5D12448FFF765
S1131C9053FF072840D00928EED1FEF773FAECE78A
S1131CA0F02149038B422BD00ED890225203934249
S1131CB02AD0D02252039342DED11A48FFF78AFF7A
S1131CC0194B03221B6F15E0802189038B4221D01D
S1131CD09342D1D1FEF7A2FA05002000FFF754FE8B
S1131CE00100280001F00CFBC7E7FEF74BFA0E4B8E
S1131CF09B680F221340D840BFE7FEF78FFABCE77A
S1131D000A48FFF767FFB8E70848FFF763FF064B89
S1131D109B6EEEE70348F4E7FFF7AAFDADE7C04684
S1131D2006000E000300200000800C4002001E008C
S1131D3030B5042813D801F0CFFA1B170321130080
S1131D40082004230324104D00291BD02B62002AF1
S1131D5005D00123A3400D490A681A42FCD030BDC6
S1131D60202010230524EEE7802040230724EAE7FF
S1131D708020802380005B000924E4E70123022003
S1131D801C00E0E72862EAE700800C402C800C404D
S1131D9010B50F240440012C04D0002C01D0032CD6
S1131DA020D910BD881E0328FBD801F095FA18022B
S1131DB012150120032401221100FFF7B9FFFFF7D8
S1131DC0B7FD244B5C62FEF729FA0021FFF7CCFD36
S1131DD0E7E702200400EEE703200124EBE70020FC
S1131DE00424E8E7481E0928DBD801F06BFA2A121C
S1131DF01ADADA22DADADA05012200231549886AC6
S1131E00022C21D1144C12042040034313438B624F
S1131E10C7E7012200201100FFF78AFF00220223F6
S1131E20ECE7012211001000FFF782FF00220123DA
S1131E30E4E70421094A13680B43136000220323D7
S1131E40DCE700221300D9E712059B001343044A80
S1131E500240DBE700800C40FCFFFEFF40800C40AA
S1131E60F3FFEFFFEFF3108072B67047002800D144
S1131E7062B67047EFF3108072B6704710B5FFF783
S1131E80F5FF10BD10B5054B0120DA6A044B1A604A
S1131E90FFF752FE034B187010BDC04600800C4083
S1131EA02C09002030090020F8B50E4F0E4AFE6FB1
S1131EB0FA6756220D4D0E4C2B68FF321A402262EF
S1131EC00C4A1178052902D00120FFF761FF012394
S1131ED02A681A4201D1022222621E4201D0002342
S1131EE0FB67F8BD08800C400E5800002C09002048
S1131EF000800C403009002070477047F8B5051E7B
S1131F0001D0FFF7BFFF04230F4A104E11690B43A2
S1131F10136134680E4B1C400E4BDC67FFF7ECFF7B
S1131F20FFF7A0FF070001F0F7FC3800FFF79EFF62
S1131F30FFF7E3FF3460002D02D0FFF7B5FFF8BDD3
S1131F40FEF76CF9FBE7C04600ED00E000E100E0BD
S1131F5094A3FFFF04E100E0F7B508A90E7809A9EE
S1131F6001930C78072A21D8134D97000723BB400F
S1131F70B840296896409943084328600125954054
S1131F80019BE943934094400C4F38680840184340
S1131F9038600B4803680B4033430360094B1D62F0
S1131FA0094B1868014021431960F7BD1700083F29
S1131FB0BF00064DDAE7C0460061004008610040FA
S1131FC00C610040FC60004010610040046100406E
S1131FD0F0B5002A08D0242401254443194E8D402D
S1131FE0A419002B1CD0256124244443154D6419E5
S1131FF0072917D80F268F00BE406568B543160021
S1132000BE4035436560002A09D101328A4011007F
S113201024224243002B11D00A4BD2181161F0BD87
S11320206561E1E70F27084EA5688E19B600B74031
S1132030BD431700B7403D43A560E4E7014BD21808
S11320405161ECE700600040F8FFFF3FF8B5050080
S113205014000800002A26D003262968124F1E40C7
S1132060394029602A6833023A4013432B60002820
S113207005D10E4B9D4202D10D48FFF7EBFD2B68B5
S11320800C4B995D614300290DD0A400E44364180E
S1132090201801F035F92B6801389B0702D5002878
S11320A000D101302861F8BDFFFCFFFF00A0004013
S11320B000B204008C3C00000122036893431943DE
S11320C00160704770B5002343630B4B0D0003633D
S11320D00123497804004B40022102685B008A43D3
S11320E0134303602B7BAA686968FFF7AFFF297865
S11320F02000FFF7E1FF70BDFFFF0100F0B585B0E0
S1132100A74A904200D0A1E100252E00A5498B6882
S1132110087802934B880C7903900195C020976A44
S1132120C00007421DD001989E49002800D04B8072
S1132130002D00D00C71BB050FD5FD234B70092376
S11321400B7037E0012603200390E7E70195002395
S11321502E00F8E701250195E0E77B05EFD5FE2386
S1132160ECE70398082800D964E101F0BFF80900FE
S1132170390081009600B800D30009011D01500107
S11321808848002E01D000260670019E002E00D043
S11321904380002D00D00471029B58881B88C4061C
S11321A018D506201B0A0340EA30034301200870B7
S11321B0536250607B4B01201978092908D1002112
S11321C0516301229A56824200D159700120185657
S11321D005B0F0BDFE2423408007E7D50120E4E7E5
S11321E0802007420CD0019E6E48002E00D0438010
S11321F0002D00D00471802313637F334B709EE065
S1132200402007420BD167493F38002E3AD101984C
S1132210002800D04B80002DCCD00C71CAE710638D
S113222002984088C7060DD5019E5E48002E00D056
S11322304380002D00D0047102230B70029B1B7895
S11322405362B7E7800725D5019E5648002E00D07B
S11322504380002D00D00471072308790B70029B82
S1132260C0001818038901208342B1D1082369E012
S113227080200742B7D14020074205D149493E3862
S1132280002EC4D00870C2E710630298408880070B
S113229000D557E70126052056E74248002E01D015
S11322A003260670019E002E00D04380002D00D02E
S11322B00471029B5C881B88E0060DD506201B0A6E
S11322C00340EA3003430420044201D001242343A1
S11322D0087001215160B3E7FE200340F3E780203A
S11322E0074200D07FE74020074204D12D493C3803
S11322F0002E8CD0C6E71063029840884007C9D5E9
S113230001982849002800D04B80002D00D00C7182
S1132310072315E7029FE0003F183F899F421AD820
S11323200420029B01345B88E4B218400125002894
S113233000D00BE72B4007D01A4B58801C710823A0
S11323400B70063B536035E7012C00D802E71548B3
S113235043800471F3E7134F002E01D005263E702D
S1132360019E002E00D07B80002D00D03C71029C89
S1132370201840685C1CC35C4C8053620623DFE673
S11323808020074200D02EE74020074205D10549AE
S1132390002E00D13BE73A3874E710637AE7C04671
S11323A000A00040340900202A488446002E02D0B0
S11323B00720664630700198002801D060464380AB
S11323C0002D01D063461C71BB0600D4F2E60879E7
S11323D0029BC000181803894C88D569A34203D90D
S11323E04068661C4E80055560464088834204D888
S11323F0012BA4D107335360A1E704215160012BC1
S113240000D8D7E6013B984200D0D3E62EE7114925
S1132410002E01D0082008700198002800D04B80BD
S1132420002D00D00C7180235B001F4200D1C1E657
S1132430136384E6019E0748002E00D04380002DDC
S113244000D00471FB234B70F23B79E60420404238
S1132450BEE6C0463409002010B5184B984202D09D
S11324600420404210BD9A68D20701D520225A6048
S11324704A88900702D508890028F1D0520702D56E
S11324800A8A002AECD0002001240D4A10705470EE
S1132490508010719160C0225A604032D968114254
S11324A00AD1084A05481A63FC22596BD2000A4330
S11324B05A63FFF723FED5E7D969EFE700A0004090
S11324C034090020FFFF0100002804D0012801D1B5
S11324D0024B19607047024BFBE7C0460C000840F2
S11324E0080008400121034A13688B431843106015
S11324F07047C04600000840034B002802D0012268
S11325001A6270471862FCE70000084042780378BA
S1132510002A01D0022213438278002A01D0042227
S11325201343014A136070470000084070B504006B
S11325301500081E02D10548FFF78CFB690001381D
S113254000F0DEFE0002606170BDC0464081040000
S11325500A4B0B4AC360002303604260094A83604C
S11325604361C3648264084A4365904200D10365B1
S11325708365904200D1C3657047C046AA0E00002F
S113258005100000F91F000000C4004070B50D00E4
S11325900400FFF7DDFF01212A8A23681143AA7B87
S11325A00B43501E82419202134323602B7D226809
S11325B0591E8B415B0713432360AB7C002B03D074
S11325C01023EA7C1343A36580232A7B5B01134316
S11325D06360AA6869682000FFF7A8FF6B7B002B83
S11325E001D01023E3606B7D002B04D0802322688C
S11325F05B02134323602B78E36070BD40230269C0
S11326001A42FCD041637047402302691A42FCD04D
S1132610C163704700230B707047000030B500227F
S1132620104C41612368934209D12060836014E017
S1132630491B9D6841611A00002D0FD02B005D6974
S11326408D42F5D9002DF3D0002A09D09060836023
S1132650002B02D05A69511A596130BD2B00F5E79D
S11326602060F4E75409002010B500F00FFA094B7C
S1132670094A1968002906D01368C41A4B69A34291
S113268003D31B1B4B61106003E0C01A00231060CE
S11326904B6110BD540900204409002010B5064BBD
S11326A002201B685C69054B1B68E41800F0FEF906
S11326B0200000F025FA10BD540900204409002030
S11326C070B50400160004AA0D0002CA2661107831
S11326D006AA2071002012882160A060E360E280D5
S11326E0854207D16561834201D020009847002EBE
S11326F012D03500FFF7BEFB0600FFF7B5FF290037
S11327002000FFF78BFF054B1B68A34201D1FFF7A5
S1132710C5FF3000FFF7B2FB002070BD5409002054
S113272010B5002103000E4C2268002A11D09A42F1
S11327300CD19A68002910D08A609A68101E0BD0B8
S11327405B6951690020CB18536105E01100926860
S1132750EBE70220002BECD010BD2260EDE7C04671
S11327605409002070B5FFF785FB114D06002C7845
S1132770002C18D10F4B1C600F4B1C600F4B1C809E
S113278000F05CF9012000F091F900F0E7F90C4B3E
S1132790020018600B4923000B4800F045FF0B4B67
S11327A0186001232B703000FFF768FB002070BD18
S11327B04009002054090020440900204C0900204D
S11327C050090020E703000018FCFFFF480900201F
S11327D070B505000C002220002D10D000290ED069
S11327E000230B70FFF746FB0121084B1B68002BED
S11327F002D02278002A03D0FFF740FB002070BDEE
S11328009D4201D12170F2E79B68F0E75409002052
S1132810F0B58BB01725059310AB1B780400069315
S113282011AB1B880E00079304ABED1800231700AF
S11328302B7022209C4212D029002000FFF7C8FFF1
S11328402A780320002A0AD1079B31000293069BB1
S113285020000193059B00933B00FFF731FF0BB071
S1132860F0BDF0B58BB01725059310AB1B780400B1
S1132870069311AB1B880E00079304ABED180023DD
S113288017002B7022209C4213D029002000FFF750
S11328909FFF2B780220002B0BD1079B3200029361
S11328A0069B31000193059B200000933B00FFF73A
S11328B007FF0BB0F0BD0000014B18687047C0461D
S11328C05009002010B5FA21034B89001B685843B6
S11328D000F016FD013010BD5009002010B58AB07B
S11328E00F2401236C442370FFF7ECFF0023010045
S11328F001930093054A230004A8FFF789FF0028E9
S113290002D12378002BFCD10AB010BD152600009B
S113291010B50B4B0C0019680200212091420DD315
S1132920084B18680023190000F09EFEFA220023C9
S1132930920000F079FE01302060002010BDC046F6
S11329404809002050090020F7B50400C3070CD53E
S1132950374A138801339BB21380FFF785FE354B4A
S11329601B68002B01D0FFF799FEA3071AD500F0CE
S11329708DF8314F05003B68C31A0093FFF77AFACC
S113298006002C4B1C68002C4ED06369009A9342BD
S113299009D9009A3D609B1A6361FFF77FFE3000FE
S11329A0FFF76CFAF7BD2300009A3D605969914224
S11329B009D8207984461879844500D91C009B687D
S11329C0521A002BF2D13000FFF758FA63690193D1
S11329D000236361FFF74EFA06002000FFF7A0FE14
S11329E03000FFF74BFA2369002B09D0FFF742FAB6
S11329F0060021692000FFF711FE3000FFF73EFAC0
S1132A00E368002B02D021682000984700F03EF8CC
S1132A10019B04005D19009B5D1B43190093FFF7A4
S1132A2029FA25000600ACE7022000F057F8B6E7C3
S1132A304C090020540900204409002013B5104C0F
S1132A4001212000FEF7D6FF01212000FFF73AF80C
S1132A500024012301A8037084704470FFF756FD1D
S1132A600721084BDA698A43DA61802299615C6044
S1132A707A31054B5201FF315A501A6013BDC046DA
S1132A80800612000000084000E100E0054A064B01
S1132A9050681B781169C90701D5506801331B06BA
S1132AA018437047000008405C09002001220240DE
S1132AB013000849800709D5074B1878002803D06C
S1132AC0042088610020187004231343CA69134347
S1132AD0CB617047000008401C0000200123020065
S1132AE01A40810703D504210A4303490B700349A3
S1132AF0CB699343CB6170471C0000200000084061
S1132B0010B50400FFF7C2FF114B1A69114B5207AD
S1132B1006D41A68121A022A02D81A68824212D1FA
S1132B20221A012A00D8841C1C601A68101A0A4A46
S1132B30904209D8196801200902090AFFF7C4FC68
S1132B400220FFF7B3FF10BD0220FFF7C7FFFAE72B
S1132B500000084058090020FFFFFF0010B502489C
S1132B60FFF778F810BDC04680061200F8B5FFF7ED
S1132B7081F907000120174E00243569054219D058
S1132B808022154B52041C782406A4186242544136
S1132B901A78E4B21218D2B21A70104A126819786C
S1132BA00F4B0906511A994204D8FFF78DFC0220F5
S1132BB0FFF77CFF6B0701D502231C4305231D404F
S1132BC0B561002C02D02000FFF7BEFE3800FFF7ED
S1132BD055F9F8BD000008405C09002058090020A0
S1132BE0FFFFFF0070B5202304000D1E01DA2D2322
S1132BF04D422370FA21002389006371280000F0FC
S1132C00EFFC0800642100F005FC2E233030E37053
S1132C1020710D49280000F0E3FC0800FA21890026
S1132C2000F0F8FB3030A0700849280000F0D8FC10
S1132C300800054900F0EEFB3030C0B2302800D166
S1132C401038607070BDC04610270000A0860100D7
S1132C5010B5FDF707FB002800D0FEE7FEF79EF94C
S1132C60002800D0FEE7054C2000FEF75DFA00289E
S1132C7000D0FEE7024B6060A36010BD6009002035
S1132C80FFFFFF00F0B593B0059318AB0D9204CB92
S1132C9003901B780691049208938024002801DA9B
S1132CA0C4006442002330260293039B002B1CDBE8
S1132CB0029AC84F7243D2186B461B89D2190793E4
S1132CC0079923000020FDF7C5FF0500802C09D0DB
S1132CD08023029A1B1B7243A0B2D2190799FDF7F5
S1132CE0B9FF0543002D03D0FEE7039B3033DFE734
S1132CF0029B01330293802BD7D1089B002B08D071
S1132D0003230195009310221933B349B348FEF706
S1132D108DFC049B002B00DC28E11E00103E0920E2
S1132D20039B0521DD00069BF600584300F072FB6F
S1132D30FA23DB01C41821000FA8FFF753FF0FA8E3
S1132D4000F0D5FD26235B1B079300230193283352
S1132D509B1B020000930FA9079BA048FEF766FC8B
S1132D60FA212000890000F055FB5B270F2808DDBD
S1132D704D3F682805DC1038D13747435B203F12AC
S1132D80C71B049B102B00D05B276023934C5B1B59
S1132D9008935B223B0008992000FEF792FA612316
S1132DA05B1B09935B223B0009992000FEF789FA1B
S1132DB062235B1B0A935B223B000A992000FEF707
S1132DC080FA70235B1B0B932A2300279B1B01971C
S1132DD0009301220B9B82492000FEF727FC482325
S1132DE05B1B0C9355239B1B0197009302220C9BA6
S1132DF07C492000FEF71AFC0F224023961B5B1B24
S1132E000C3A0197009678492000FEF70FFC049BCA
S1132E1006990FA8DE00FFF7E5FE0FA800F067FD96
S1132E2028239B1B0200019700930FA9079B2000F6
S1132E30FEF7FCFBFA210698890000F0EBFA5A37FA
S1132E40002807DD4C3F292804DCE0377843933F12
S1132E50C0113F1A049B002B00D05B275F4C3B0042
S1132E605B2208992000FEF72CFA3B005B220999AB
S1132E702000FEF726FA3B005B220A992000FEF7A9
S1132E8020FA552200275023921B5B1B00925749BE
S1132E90012201972000FEF7C9FB0F239B1B00931F
S1132EA002220C9B524901972000FEF7BFFB2A2304
S1132EB09E1B01220B9B00964E490FAE01972000EA
S1132EC0FEF7B4FB0D993000FFF78CFE300000F0E4
S1132ED00EFD2821B52302005B1B009101973100F0
S1132EE02000FEF7A3FBFA210D98890000F008FAF0
S1132EF00200322801D96422121A3F4B9956312814
S1132F0037D83222101A1B565B42039A102A35D145
S1132F105932511A0091483348212000FEF71EFA15
S1132F20029D059B0A2B2FD9344B33802B23B3707E
S1132F309E23372200265B005B1B00920196343AE5
S1132F400FA92000FEF772FB2423059AFF335B1BB5
S1132F500A2A38D8100060220196009200F0BCF9C9
S1132F602121212A2A2A2D2D30303000049E1036AA
S1132F70D5E61B18323B1B785BB2C6E7039B002BDC
S1132F80CFDC8135FF35CCE72023059AB3700A2ABC
S1132F9002D11B4B3380CBE73370059B3033737006
S1132FA0C6E718495A3A2000FEF740FBFEF732F80C
S1132FB013B0F0BD583A1449F5E75A3A1349F2E709
S1132FC0573A1349EFE76022019600921149593AA2
S1132FD0E9E7C046903C000030550000600900203D
S1132FE09054000092540000955400005555000080
S1132FF0995400009C5400005755000031310000E2
S1133000313000009E540000A5540000AE5400006E
S1133010B5540000BF54000010B5044B1B68002BCE
S113302002D0034A1068984710BDC046AC0900207E
S1133030A80900200123024A1370024A1370704742
S11330401D0000201E000020F0B591B0664B0AAAB6
S113305013CB13C213CB13C20124644B21001C6491
S11330606348FEF72FFD0222230010000821FEF71B
S1133070AFFF0222230010000921FEF7A9FF082256
S113308000231100022001940094FEF765FF092239
S113309000231100022001940094FEF75DFFC0227A
S11330A00223544F5200BB503B603E33BB507D3A29
S11330B0FF3A11003B6003200023FEF789FF102133
S11330C04D4B0022D9671F2305AE4C4D32707270F0
S11330D0B270327172710021093207A8F37000F0E6
S11330E0FEFB21004648FEF7EDFC31002800FEF708
S11330F08DFB04236846437720206B461B18173842
S1133100187007AB19002800FEF730FBC02210210D
S11331103C4B52006B636B693B4823436B61B95072
S113312039602100FEF7CEFC02213848FEF730FE5C
S1133130FFF718FBFFF78CFD0AA8FDF791FA0022B0
S113314082213348FDF74CFCC0213148FDF72AFBAE
S1133150FA2007A9C000FFF7DBFB031E06D101908C
S113316000902C4A07992C48FFF77BFB00242B4F37
S11331703B78002B19D001230420294A29491470D3
S11331806B601378002B2AD06A6A274B82211A605D
S11331901F48330004AAFDF7F5FB0E2207AB6A446F
S11331A0C0211B48FDF71CFB3C70204F3B78002BD3
S11331B011D0AF2120001C4A090112680E2391424C
S11331C060416B441B88049A019000940599002087
S11331D0FFF758FD3C700020FEF790FEC7E70B692F
S11331E083430B6130BFCCE78C55000000000C40DA
S11331F00072040000E100E0006000400020004094
S113320000A204007C1F0000D0233E0002001E0028
S113321000A0004035300000B00900201E0000204E
S11332208C09002000ED00E0200000201D0000209B
S113323013B51400094B1860094B1960FFF73CFBE8
S1133240210000F05DF800240100019400942300A3
S1133250044A0548FFF705FB200016BDAC09002011
S1133260A80900201930000090090020034B9A6936
S11332701A620122024B1A707047C04600200040B7
S11332808C090020084A93691362DA0504D50122E7
S113329006490A7006490A709B0504D50123034AAE
S11332A01370034A13707047FC6000401E00002036
S11332B01D00002010B5FFF7E5FF10BD10B5FFF7A6
S11332C0E1FF10BD02B4714649084900095649009E
S11332D08E4402BC7047C04602B471464908490096
S11332E0095C49008E4402BC7047C04603B4714671
S11332F0490840004900095A49008E4403BC7047FC
S1133300002243088B4274D303098B425FD3030A20
S11333108B4244D3030B8B4228D3030C8B420DD333
S1133320FF22090212BA030C8B4202D312120902C1
S113333065D0030B8B4219D300E0090AC30B8B42FF
S113334001D3CB03C01A5241830B8B4201D38B03AD
S1133350C01A5241430B8B4201D34B03C01A524152
S1133360030B8B4201D30B03C01A5241C30A8B4295
S113337001D3CB02C01A5241830A8B4201D38B0280
S1133380C01A5241430A8B4201D34B02C01A524124
S1133390030A8B4201D30B02C01A5241CDD2C30996
S11333A08B4201D3CB01C01A524183098B4201D312
S11333B08B01C01A524143098B4201D34B01C01AFD
S11333C0524103098B4201D30B01C01A5241C30875
S11333D08B4201D3CB00C01A524183088B4201D3E4
S11333E08B00C01A524143088B4201D34B00C01AD0
S11333F05241411A00D20146524110467047FFE73C
S113340001B5002000F0F0F802BDC0460029F7D055
S113341076E7704703460B437FD4002243088B4270
S113342074D303098B425FD3030A8B4244D3030B47
S11334308B4228D3030C8B420DD3FF22090212BA0C
S1133440030C8B4202D31212090265D0030B8B4288
S113345019D300E0090AC30B8B4201D3CB03C01A72
S11334605241830B8B4201D38B03C01A5241430B4D
S11334708B4201D34B03C01A5241030B8B4201D33D
S11334800B03C01A5241C30A8B4201D3CB02C01AA8
S11334905241830A8B4201D38B02C01A5241430A20
S11334A08B4201D34B02C01A5241030A8B4201D30F
S11334B00B02C01A5241CDD2C3098B4201D3CB01B6
S11334C0C01A524183098B4201D38B01C01A524165
S11334D043098B4201D34B01C01A524103098B4269
S11334E001D30B01C01A5241C3088B4201D3CB0054
S11334F0C01A524183088B4201D38B00C01A524137
S113350043088B4201D34B00C01A5241411A00D2E6
S113351001465241104670475DE0CA0F00D049424F
S1133520031000D34042534000229C4603098B42BF
S11335302DD3030A8B4212D3FC22890112BA030A47
S11335408B420CD3890192118B4208D389019211C9
S11335508B4204D389013AD0921100E08909C3094E
S11335608B4201D3CB01C01A524183098B4201D350
S11335708B01C01A524143098B4201D34B01C01A3B
S1133580524103098B4201D30B01C01A5241C308B3
S11335908B4201D3CB00C01A524183088B4201D322
S11335A08B00C01A5241D9D243088B4201D34B003D
S11335B0C01A5241411A00D20146634652415B107F
S11335C0104601D34042002B00D549427047634660
S11335D05B1000D3404201B5002000F005F802BDA5
S11335E00029F8D016E770477047C0461C21012314
S11335F01B04984201D3000C10391B0A984201D3D2
S1133600000A08391B09984201D30009043902A2AF
S1133610105C40187047C046040302020101010116
S11336200000000000000000002B11D1002A0FD17F
S1133630002900D1002802D00021C943081C07B486
S1133640024802A14018029003BDC0469DFFFFFF3F
S113365003B4684601B5029800F030F8019B9E4619
S113366002B00CBC7047C046F0B5CE4647461504C0
S11336702D0C2E0080B50704140C3F0C9946030C46
S11336807E435D43674363437F19340CE4199C46CE
S1133690A54203D980235B029846C4444B46434366
S11336A05143250C36046544360C2404A4195B19D3
S11336B0591820000CBC90469946F0BDF0B54F4611
S11336C04646D646C0B5040082B00D0091469846E1
S11336D08B422FD82CD04146484600F0B1F829003F
S11336E00600200000F0ACF8331A9C46203B9A46B2
S11336F000D576E04B46524693401F004B46624647
S113370093401E00AF4228D825D05346A41BBD4188
S1133710002B00DA7BE000220023009201930123B6
S1133720524693400193012362469340009318E06C
S11337308242D0D900220023009201930A9B002BDD
S113374001D01C605D600098019902B01CBC9046D9
S11337509946A246F0BDA342D7D900220023009285
S113376001936346002BE9D0FB0798464146720853
S11337700A437B0866460EE0AB4201D1A2420CD854
S1133780A41A9D41012024196D410021013E2418F1
S11337904D41002E06D0AB42EED9013E24196D41B5
S11337A0002EF8D100980199534600196941002B65
S11337B023DB2B005246D3402A006446E2401C001F
S11337C053461500002B2DDB26005746BE40330020
S11337D026006746BE403200801A9941009001914C
S11337E0ACE7624620239B1A4A46DA40614613003E
S11337F042468A4017001F4380E7624620239B1AF3
S11338002A0066469A402300F3401343D4E76246F5
S1133810202300219B1A0022009101920122DA4008
S1133820019280E72023624626009B1ADE402F0087
S1133830B0466646B74046463B003343C8E7C046F9
S113384010B5002903D1FFF7D1FE203002E0081C97
S1133850FFF7CCFE10BDC046084B10B50400002B8A
S113386002D0002100E000BF054B1868836A002BDA
S113387000D09847200000F041F8C0460000000046
S1133880A455000070B500260C4D0D4C641BA4100B
S1133890A64209D1002600F033F80A4D0A4C641BF5
S11338A0A410A64205D170BDB300EB589847013669
S11338B0EEE7B300EB5898470136F2E78C0000209E
S11338C08C0000208C00002090000020002310B504
S11338D09A4200D110BDCC5CC4540133F8E7030014
S11338E01218934200D1704719700133F9E700238D
S11338F0C25C0133002AFBD1581E7047FEE7C04664
S1133900F8B5C046F8BC08BC9E467047F8B5C0463A
S1133910F8BC08BC9E46704701B40248844601BC0A
S1133920604700BF850000205368617270204C53CB
S11339303031334237444830332023310000000013
S1133940050000000000000040420F0005010000D7
S11339500000000000000000010001006C390000BC
S113396020030164080802000100000000186C6CC8
S113397010CE3808600C0000000000007C307C7C15
S1133980C6FE7CFE7C7C000070001C7C7C7C7E7C03
S11339907EFEFE7CC63C78C606C6C67C7E7C7E7CEB
S11339A07EC6C6C6C6C6FE7C007C10000C0006009F
S11339B060003800060000060C0000000000000053
S11339C0000000000000003018188C000000000007
S11339D000186CFEFC6A2C1830186C18000000C02B
S11339E0C638C6C6C606C6C0C6C61818387C38C689
S11339F0C6C6C6C6C60606C6C618306606EECEC617
S1133A00C6C6C6C618C6C6C6C6C6C00C066038003A
S1133A100C00060060000C00061830060C000000C4
S1133A200000000018000000000000181830D60044
S1133A3000000000001848FE162E2C181830381804
S1133A4000000060C63060C0C6060660C6C618180E
S1133A501C7C70C6F6C6C606C6060606C6183036F0
S1133A6006FEDEC6C6C6C60618C6C6C66CC6600C4A
S1133A700C606C00043C3E3C7C3C3C3C3E000066DC
S1133A800C6E3E3C3E3C363C186666C666667E1846
S1133A9018306200000000000018006C7C10DC008C
S1133AA01830FE7E1C7E0030C6303070FE7E7E30C4
S1133AB07CFC00000E00E070F6FE7E06C61E1EF6BC
S1133AC0FE18301E06D6F6C67EC67E7C18C6C6D63E
S1133AD038FC300C1860C6000060660666660C662A
S1133AE0661830360CD6666666666E067C6666C6F2
S1133AF03C66300C0060000000000000000000FE86
S1133B00D0E866001830387E1C7E1C18C63018C0F9
S1133B10C0C0C618C6C018181C7C703076C6C6064D
S1133B20C60606C6C618303606C6E6C606B6C6C0FB
S1133B3018C6C6FE6CC0180C30600000007C660617
S1133B40667E0C7C6618301E0CD666663E56063CB5
S1133B50186666D6187C181818300000000000009B
S1133B60001800FE7EAC660030186C1818001C0C9F
S1133B70C6300CC6C0C6C60CC6C61818387C380079
S1133B8006C6C6C6C60606C6C618366606C6C6C66F
S1133B900666C6C618C66CEEC6C00C0C606000FE95
S1133BA00066660666060C60661836360CC66666DF
S1133BB00626066018663CD63C600C1818300000D7
S1133BC0000000000018006C10E6DC00600C001817
S1133BD00C001C067C78FE7CC07C7C067C7C000C83
S1133BE070001C307CC67E7C7EFE06FCC63C1CC677
S1133BF0FEC6C67C06DCC67C187C38C6C67EFE7C47
S1133C00C07C00FE007C3E3C7C3C0C3E66701C6626
S1133C1038C6663C065C063E707C18FC663E7E3008
S1133C201818000000000000000000000000000060
S1133C300000000000000000000000000000000080
S1133C400000000000000000000000000000000070
S1133C500000000000000000000000000000000060
S1133C600000000000000000000000000000000050
S1133C700000000000000000000000000000000040
S1133C800000000000000000000000000809110806
S1133C90FFFFFFFFFFFFFFFFFFFFFFFFFFFFFFFF30
S1133CA0FFFFFFFFFFFFFFFFFFFFFFFFFFFFFFFF20
S1133CB0FFFFFFFFFFFFFFFFFFFFFFFFFFFFFFFF10
S1133CC0010000000000000000000000000000806F
S1133CD0010000000000000000000000000000805F
S1133CE0010000000000000000000000000000804F
S1133CF0010000000000000000000000000000803F
S1133D00010000000000000000000000000000802E
S1133D10010000000000000000000000000000801E
S1133D20010000000000000000000000000000800E
S1133D3001000000000000000000000000000080FE
S1133D4001000000000000000000000000000080EE
S1133D5001000000000000000000000000000080DE
S1133D6001000000000000000000000000000080CE
S1133D7001000000000000000000000000000080BE
S1133D8001000000000000000000000000000080AE
S1133D90010000000000000000000000000000809E
S1133DA0010000000000000000000000000000808E
S1133DB0010000000000000000000000000000807E
S1133DC0010000000000000000000000000000806E
S1133DD0010000000000000000000000000000805E
S1133DE001800700000000000000000000000080C7
S1133DF0010000000000000000000000000000803E
S1133E00010000000000000000000000000000802D
S1133E1001C0440000000000000000000000008019
S1133E20010000000000000000000000000000800D
S1133E3001000000000000000000000000000080FD
S1133E400120840000000000000000000000008049
S1133E5001000000000000000000000000000080DD
S1133E6001000000000000000000000000000080CD
S1133E700120840000000000000000000000008019
S1133E8001000000000000000000000000000080AD
S1133E90010000000000000000000000000000809D
S1133EA001208400000000000000000007000080E2
S1133EB0010000000000000000000000000000807D
S1133EC0010000000000000000000000000000806D
S1133ED00120840000000000000000800D0000802C
S1133EE0010000000000000000000000000000804D
S1133EF0010000000000000000000000000000803D
S1133F000140C40000000000000000C01800008050
S1133F10010000000000000000000000000000801C
S1133F20010000000000000000000000000000800C
S1133F3001C0640000000000000000401000008088
S1133F4001000000000000000000000000000080EC
S1133F5001000000000000000000000000000080DC
S1133F6001001F000000000000000040100000805D
S1133F7001000000000000000000000000000080BC
S1133F8001000000000000000000000000000080AC
S1133F90010000000000000000000040100000804C
S1133FA0010000000000000000000000000000808C
S1133FB0010000000000000000000000000000807C
S1133FC001200000000000000000004010000080FC
S1133FD0010000000000000000000000000000805C
S1133FE0010000000000000000000000000000804C
S1133FF00120000000000000000000FE100000800E
S1134000010000000000000000000000000000802B
S1134010010000000000E0FFFFFF7F0000000080BF
S1134020012000000000000000000040100000809B
S113403001000000000000000000000000000080FB
S113404001000000000030000000C00000000080FB
S113405001C00000000000000000004010000080CB
S113406001000000000000000000000000000080CB
S11340700100000000001800000080010000008022
S113408001E0FF000000000000000040100000807C
S1134090010000000000000000000000000000809B
S11340A00100000000000807CE011C010000008090
S11340B0010000000000000000000040100000802B
S11340C00108000000000000000000000000008063
S11340D00100000000000807CE011C010000008060
S11340E001000000000000000000004010000080FB
S11340F001780000000000000000000000000080C3
S113410001208000000008078E030E0100000080DB
S113411001000000000000000000004010000080CA
S113412001C0010000000000000000000000008049
S11341300160C000000008078E030E01000000802B
S1134140010000000000000000000040100000809A
S113415001000F00000000000000000000000080CB
S113416001806000000008078E070F010000008036
S113417001E0FF000000000000000040100000808B
S11341800100380000000000000000000000008072
S113419001001B00000008070E0707010000008053
S11341A001006000000000000000004010000080DA
S11341B00100F80000000000000000000000008082
S11341C001000C00000008070E0707010000008032
S11341D0010080000000000000000040100000808A
S11341E001008F03000000000000000000000080B8
S11341F001001B00000008070E8E03010000008070
S11342000100800000000000000000401000008059
S113421001C0030600000000000000000000008050
S113422001C06000000008070E8E0301000000803A
S11342300100800000000000000000401000008029
S1134240017800040000000000000000000000806D
S11342500160C000000008070EDE030100000080BA
S113426001008000000000000000004010000080F9
S113427001080004000000000000000000000080AD
S113428001208000000008070EDC0101000000800E
S11342900100400000000000000000401000008009
S11342A00108200000000000000000000000008061
S11342B001000000000008070EDC0101000000807E
S11342C001E03F0000000000000000FE100000803C
S11342D00108200000000000000000000000008031
S11342E0018007000000080F0FFC0101000000809E
S11342F001000000000000000000004010000080E9
S11343000108200000000000000000000F060080EB
S113431001C04400000008FE07F80001000000800E
S113432001000000000000000000004010000080B8
S11343300108300000000000000000801902008025
S113434001208400000008FE07F80001000000803E
S113435001208000000000000000004010000080E8
S113436001FF1F0000000000000000801001008019
S113437001208400000008F80170000100000080A2
S113438001208000000000000000004010000080B8
S113439001080000000000000000008010010080FF
S11343A001208400000008000000000100000080DB
S11343B00120800000000000000000401000008088
S11343C00108000000000000000000809000008050
S11343D001208400000008000000000100000080AB
S11343E00120C00000000000000000401000008018
S11343F0010000000000000000000080D9000080DF
S11344000140C40000008813797822010000008074
S113441001FC7F000000000000000040100000804C
S11344200100000000000000000000004F000080B8
S113443001C06400000008318908220100000080E6
S1134440012000000000000000000040101C00805B
S1134450C1F83F000000000000000000200F0080B1
S113446001001F0000000851090914010000008028
S11344700120000000000000000000401022008025
S1134480010000000000000000000000B0190080DE
S113449001000000000008510979080100000080B3
S11344A00100000000000000000000401022008015
S11344B001000000000000000000000090100080D7
S11344C001000000000008910909140100000080A7
S11344D0010000000000000000000040101C0080EB
S11344E001000000000000000000000088100080AF
S11344F0010000000000081189082201000000806A
S11345000180FF0000000000000000401000008057
S1134510010000000000000000000000881000807E
S11345200100000000008813797822010000008057
S113453001606200000000000000004010000080E4
S11345400100000000000000000000008419008049
S113455081FFFF000000080000000001000000804F
S11345600120420000000000000000401000008014
S1134570E1FF3F000000000000000000060F008083
S113458001C060000000080000000001000000807D
S113459001208200000000000000004010000080A4
S11345A0013018000000000000000000000000803E
S11345B001604000000008000000000100000080CD
S11345C00120820000000000000000401000008074
S11345D0011810000000000000000000000000802E
S11345E0012080000000080000000001000000809D
S11345F00120840000000000000000401000008042
S113460001082000000000000000000000000080FD
S1134610012080000000080000000001000000806C
S11346200140C40000000000000000FE10000080F3
S113463001082000000000000000000000000080CD
S1134640012080000000080000000001000000803C
S1134650010078000000000000000040100000800D
S1134660010820000000000000000000000000809D
S11346700140C000000008000000000100000080AC
S11346800100000000000000000000401000008055
S11346900110300000000000000000000000008055
S11346A001C060000000080000000001000000805C
S11346B00120000000000000000000401000008005
S11346C0013018000000000000000000000000801D
S11346D001001F000000080000000001000000802D
S11346E001200000000000000000004010000080D5
S11346F001C007000000000000000000000000806E
S1134700010000000000080000000001000000801B
S113471001200000000000000000004010000080A4
S11347200100000000000000000000000000008004
S113473001000000000008000000000100000080EB
S113474001C00000000000000000004010000080D4
S113475001000000000000000000000000000080D4
S113476001000000000008000000000100000080BB
S113477001E0FF0000000000000000401000008085
S113478001000000000000000000000000000080A4
S11347900180FF000000080000000001000000800C
S11347A00100000000000000000000401000008034
S11347B0C1F83F000000000000000000000000807D
S11347C0014000000000080000000001000000801B
S11347D00100000000000000000000401000008004
S11347E00100000000000000000000000000008044
S11347F0012000000000080000000001000000800B
S113480001000000000000000000004010000080D3
S11348100100000000000000000000000000008013
S113482001200000000008000000000100000080DA
S1134830018007000000000000000040100000801C
S113484001000000000000000000000000000080E3
S113485001200000000008000000000100000080AA
S113486001C044000000000000000040100000806F
S113487001000000000000000000000000000080B3
S1134880014000000000080000000001000000805A
S1134890012084000000000000000040100000809F
S11348A001E03F0000000000000000000000008064
S11348B001C00000000008000000000100000080AA
S11348C0012084000000000000000040100000806F
S11348D00110000000000000000000000000008043
S11348E001E0FF000000080000000001000000805B
S11348F0012084000000000000000040100000803F
S1134900010800000000000000000000000000801A
S11349100100000000000800000000010000008009
S1134920012084000000000000000040100000800E
S113493001080000000000000000000000000080EA
S113494001000000000008000000000100000080D9
S11349500140C4000000000000000040100000807E
S113496001080000000000000000000000000080BA
S113497001000000000008000000000100000080A9
S113498001C0640000000000000000FE1000008070
S1134990011800000000000000000000000000807A
S11349A00100000000000800000000010000008079
S11349B001001F0000000000000000401000008003
S11349C00130000000000000000000000000008032
S11349D001FFFF000000080000000001000000804B
S11349E001000000000000000000004010000080F2
S11349F001E03F0000000000000000000000008013
S1134A000100000000000800000000010000008018
S1134A1001000000000000000000004010000080C1
S1134A2001100000000000000000000000000080F1
S1134A3001000000000008000000000100000080E8
S1134A400100000000000000000000401000008091
S1134A500108000000000000FC3F0000000000808E
S1134A6001000000000008000000000100000080B8
S1134A7001801F00000000000000004010000080C2
S1134A8001080000000000C007E0030000000080EF
S1134A900100000000000800000000010000008088
S1134AA001C0600000000000000000401000008011
S1134AB0010800000000007800001E0000000080D3
S1134AC00100000000000800000000010000008058
S1134AD00160400000000000000000401000008061
S1134AE0011800000000000E0000700000000080AB
S1134AF00100000000000800000000010000008028
S1134B000120800000000000000000401000008030
S1134B1001300000000080030000C001000000809C
S1134B2001000000000008000000000100000080F7
S1134B300120800000000000000000401000008000
S1134B4001F83F000000E0000000000700000080C2
S1134B5001000000000008000000000100000080C7
S1134B6001208000000000000000004010000080D0
S1134B7001000000000030000000000C0000008074
S1134B800101000000000800000000010000008096
S1134B900140C00000000000000000401000008040
S1134BA00100000000001C0000000038000000802C
S1134BB0010F000000000800000000010000008058
S1134BC00180600000000000000000401000008030
S1134BD001000000000006000000006000000080EA
S1134BE001780000000008000000000100000080BF
S1134BF001E0FF0F000000000000004010000080F2
S1134C000100000000000300000000C0000000805C
S1134C1001E0010000000800000000010000008025
S1134C2001000000000000000000004010000080AF
S1134C3001F83F00008001000000008001000080B6
S1134C4001000F00000008000000000100000080C7
S1134C50010000000000000000000040100000807F
S1134C600100180000C000000000000003000080E4
S1134C70010078000000080000000001000000802E
S1134C80010000000000000000000040100000804F
S1134C900100200000600000000000000600008009
S1134CA00100C000000008000000000100000080B6
S1134CB0010000000000000000000040100000801F
S1134CC0010020000020000000000000040000801B
S1134CD00100F800000018000000800100000080BE
S1134CE00180FF0000000000000000FE10000080B2
S1134CF00100200000300000000000000C000080D3
S1134D0001001F00000030000000C000000000800F
S1134D10014000000000000000000040100000807E
S1134D2001002000001800000000000018000080AE
S1134D3001E003000000E0FFFFFF7F0000000080AF
S1134D40012000000000000000000040100000806E
S1134D5001001000000800000000000010000080A6
S1134D600178000000000000000000000000008046
S1134D70012000000000000000000040100000803E
S1134D8001F80F00000C000000000000300000805B
S1134D90010F00000000000000000000000000807F
S1134DA0012000000000000000000070700000807E
S1134DB00100000000060000000000006000008008
S1134DC0010100000000000000000000000000805D
S1134DD001600000000000000000000C870100805A
S1134DE001000000000200000000000040000080FC
S1134DF0010000000000000000000000000000802E
S1134E0001C000000000000000000003070600804D
S1134E1001000000000200000000000040000080CB
S1134E2001000000000000000000000000000080FD
S1134E300180FF0000000000000080F17F0C008072
S1134E40010000000003000000000000C00000801A
S1134E5001000000000000000000000000000080CD
S1134E6001400000000000000000C0F8FF180080AE
S1134E70C1FF3F000001000000000000800000802E
S1134E8001FF1F000000000000000000000000807F
S1134E900120000000000000000060FEFF330080DD
S1134EA0012000008001000000000000800100805B
S1134EB0010060000000000000000000000000800D
S1134EC00120000000000000000020FFFF270080F8
S1134ED001200000800000000000000000010080AC
S1134EE001004000000000000000000000000080FD
S1134EF00120000000000000000010FFFF470080B8
S1134F00012000008000000000000000000100807B
S1134F10010080000000000000000000000000808C
S1134F200160000000000000000090FFFF4F0080BF
S1134F300120008083000000000000000031E780B1
S1134F40010080000000000000000000000000805C
S1134F5001C00000000000000000C8FFFF9F0080A7
S1134F6001200040C40000000000000000AB1881D4
S1134F70010080000000000000000000000000802C
S1134F8001E0FF00000000000000C8FFFF9F008058
S1134F900120004044000000E007000000A2188146
S1134FA001008000000000000000000000000080FC
S1134FB001000000000000000000C8FFFF9F008007
S1134FC00120004044000000F00F000000A21881FE
S1134FD0010040000000000000000000000000800C
S1134FE001000000000000000000C8FFFF9F0080D7
S1134FF00120004044000000F81F000000A21881B6
S113500001006000000000000000000000000080BB
S113501001000000000000000000E4FFFF3F0180E9
S11350200120004044000000F81F000000A2188185
S113503001FF1F00000000000000000000000080CD
S113504001800700000000000000E4FFFF3F018032
S1135050C1FF3F80C3FFFFFFFFFFFFFFFF23E78088
S113506001000000000000000000000000000080BB
S113507001C04400000000000000E4FFFF3F018085
S1135080010000000000000000000000000000809B
S1135090010000000000000000000000000000808B
S11350A001208400000000000000C8FFFF9F008072
S11350B0010000000000000000000000000000806B
S11350C0010000000000000000000000000000805B
S11350D001208400000000000000C8FFFF9F008042
S11350E0010000000000000000000000000000803B
S11350F0010000000000000000000000000000802B
S113510001208400000000000000C8FFFF9F008011
S1135110010000000000000000000000000000800A
S113512001000000000000000000000000000080FA
S113513001208400000000000000C8FFFF9F0080E1
S113514001000000000000000000000000000080DA
S113515001000000000000000000000000000080CA
S11351600140C40000000000000090FFFF4F0080D9
S113517001000000000000000000000000000080AA
S1135180010000000000000000000000000000809A
S113519001C0640000000000000010FFFF47008011
S11351A0010000000000000000000000000000807A
S11351B0010000000000000000000000000000806A
S11351C001011F0000000000000020FFFF270080F5
S11351D0010000000000000000000000000000804A
S11351E0010000000000000000000000000000803A
S11351F00101000000000000000060FEFF33008099
S11352000100000000000000000000000000008019
S11352100100000000000000000000000000008009
S113522001010000000000000000C0F8FF18008029
S113523001000000000000000000000000000080E9
S113524001000000000000000000000000000080D9
S11352500101000000000000000080F17F0C0080CC
S113526001000000000000000000000000000080B9
S113527001000000000000000000000000000080A9
S11352800101000000000000000000030706008088
S11352900100000000000000000000000000008089
S11352A00100000000000000000000000000008079
S11352B001FFFF00000000000000000C80010080DE
S11352C00100000000000000000000000000008059
S11352D00100000000000000000000000000008049
S11352E00101000000000000000000F078000080D0
S11352F00100000000000000000000000000008029
S11353000100000000000000000000000000008018
S11353100101000000000000000000000700008000
S113532001000000000000000000000000000080F8
S113533001000000000000000000000000000080E8
S113534001010000000000000000000000000080D7
S113535001000000000000000000000000000080C8
S113536001000000000000000000000000000080B8
S113537001010000000000000000000000000080A7
S11353800100000000000000000000000000008098
S11353900100000000000000000000000000008088
S11353A00100000000000000000000000000008078
S11353B00100000000000000000000000000008068
S11353C00100000000000000000000000000008058
S11353D00100000000000000000000000000008048
S11353E00100000000000000000000000000008038
S11353F00100000000000000000000000000008028
S11354000100000000000000000000000000008017
S11354100100000000000000000000000000008007
S113542001000000000000000000000000000080F7
S113543001000000000000000000000000000080E7
S113544001000000000000000000000000000080D7
S113545001000000000000000000000000000080C7
S1135460FFFFFFFFFFFFFFFFFFFFFFFFFFFFFFFF48
S1135470FFFFFFFFFFFFFFFFFFFFFFFFFFFFFFFF38
S1135480FFFFFFFFFFFFFFFFFFFFFFFFFFFFFFFF28
S113549046003230003130300034300043002020E8
S11354A0204C6F77004D6F64657261746500202035
S11354B048696768005665727920486967680045DD
S11354C0787472656D6500506C65617365207265F2
S11354D06D6F766520006F626A65637420696E2063
S11354E066726F6E74006F662073656E736F7220E0
S11354F0626F61726400546F20737461727420640B
S1135500656D6F2000707265737320504231206F97
S11355107200686F7665722068616E64206F7665CC
S1135520720073656E736F7220626F6172642E0015
S11355304C6F772042617474657279210053656EF3
S1135540736F72455850206661696C210044656D23
S11355506F2076312E30000001020304050607088F
S1135560090A0B0C0D0E0F0F101112131415161738
S1135570171819191A1A1B1C1C1D1D1D1E1E1E1F6F
S11355801F1F1F20202020202020000000A00040FA
S1135590040D040C0600000000000000486B01002C
S10F55A0000000002400002000000000B7
S10B55AC28ABFF7F01000000A1
S11355B4809FD50000366E01008000004104000085
S11355C400000000E10000200010000001010100BF
S11355D4E40C0000000000000000000000000000D3
S11355E400000000000000000000000000000000B3
S11355F400000000000000000000000000000000A3
S11356040000000000000000000000000000000092
S11356140000000000000000000000000000000082
S11356240000000000000000000000000000000072
S11356340000000030BF04231B687047B50000005D
S10756448D000000D1
S903014DAE
